:020000040800F2
:100000007856002029030008FB2C00084D29000821
:10001000F92C0008DD0600089734000800000000F5
:10002000000000000000000000000000690200085D
:10003000EF0A000800000000C5020008412E000879
:100040004303000843030008430300084303000878
:100050004303000843030008430300084303000868
:100060004303000843030008430300084303000858
:1000700055070008610700086D07000879070008A8
:1000800085070008430300084303000843030008F2
:10009000E106000843030008430300084303000887
:1000A0004303000843030008430300084303000818
:1000B000192F000843030008430300084303000806
:1000C00043030008430300084303000843030008F8
:1000D0004303000843030008E5320008C533000865
:1000E00043030008430300084303000843030008D8
:1000F00043030008430300084303000843030008C8
:1001000043030008430300084303000843030008B7
:10011000ED2F0008430300084303000843030008D1
:100120004303000843030008430300084303000897
:100130004303000843030008430300084303000887
:10014000ED060008430300084303000843030008CA
:100150004303000843030008430300084303000867
:100160004303000843030008430300084303000857
:100170004303000843030008430300080000000095
:10018000430300084303000800F002F800F05CF8A5
:100190000AA090E8000C82448344AAF10107DA45E2
:1001A00001D100F051F8AFF2090EBAE80F0013F0D8
:1001B000010F18BFFB1A43F001031847EC7B000046
:1001C0000C7C00000A444FF0000C10F8013B13F0C7
:1001D000070408BF10F8014B1D1108BF10F8015BA0
:1001E000641E05D010F8016B641E01F8016BF9D193
:1001F00013F0080F1EBF10F8014BAD1C0C1B09D1EA
:100200006D1E58BF01F801CBFAD505E014F8016B5B
:1002100001F8016B6D1EF9D59142D6D370470000ED
:100220000023002400250026103A28BF78C1FBD8FF
:10023000520728BF30C148BF0B6070471FB507F099
:10024000A8FA1FBD10B510BD00F0DCF91146FFF78C
:10025000F5FF05F0F7FA00F0FAF903B4FFF7F2FF43
:1002600003BC00F0FDF900002C4B19680868B0E8E9
:10027000F04F80F30988BFF36F8F4FF0000080F3D9
:10028000118870470000000008480068006880F38B
:1002900008884FF0000080F3148862B661B6BFF39F
:1002A0004F8FBFF36F8F00DF00BF00BF08ED00E08E
:1002B000DFF80C00016841F470010160704700BF75
:1002C00088ED00E0EFF30980BFF36F8F134B1A68DE
:1002D0001EF0100F08BF20ED108A20E9F04F1060CB
:1002E00009B44FF0500080F31188BFF34F8FBFF374
:1002F0006F8F06F081FA4FF0000080F3118809BC7F
:1003000019680868B0E8F04F1EF0100F08BFB0EC95
:10031000108A80F30988BFF36F8F7047F8060020BA
:10032000EFF30580704700000948804709480047FF
:10033000FEE7FEE7FEE7FEE7FEE7FEE7FEE7FEE795
:10034000FEE7FEE704480549054A064B70470000F2
:10035000092F0008890100087850002078560020F5
:10036000785200207852002053EA020C00F0698095
:100370002DE9F04B4FF00006002B1FBFB3FA83F5B9
:1003800003FA05F424FA05F65E4012BF1643B2FAEA
:1003900082F502FA05F4C5F120051EBF22FA05FC1C
:1003A00044EA0C04203556EA044C4FEA144418BFC2
:1003B000641C4FF000084FF00009904271EB030CF1
:1003C00039D3002919BFB1FA81F701FA07F6B0FA5B
:1003D00080F700FA07F6C7F120071EBF20FA07FCD6
:1003E00046EA0C062037B6FBF4FCA7EB0507103FE6
:1003F00007F01F0BCBF120060CFA0BFB2CFA06F6CC
:1004000044BFB3460026202FA4BF5E464FF0000B2A
:100410005BEA060C08BF4FF0010B19EB0B09ABFBB5
:10042000027C48EB0608C01B06FB02CC0BFB03CC8E
:1004300071EB0C01C1E70B46024641464846BDE858
:10044000F08B13B54FF000004FF00001AFF30080C8
:10045000BDE81C407047032A40F2308010F0030CC6
:1004600000F0158011F8013BBCF1020F624498BF07
:1004700011F801CB00F8013B38BF11F8013BA2F1A4
:10048000040298BF00F801CB38BF00F8013B11F01F
:10049000030300F02580083AC0F0088051F8043BBF
:1004A000083A51F804CBA0E80810F5E7121D5CBF2C
:1004B00051F8043B40F8043BAFF30080D20724BF5F
:1004C00011F8013B11F801CB48BF11F8012B24BFF3
:1004D00000F8013B00F801CB48BF00F8012B704742
:1004E00010B5203AC0F00B80B1E81850203AA0E8CF
:1004F0001850B1E81850A0E81850BFF4F5AF5FEA03
:10050000027C24BFB1E81850A0E8185044BF18C9B5
:1005100018C0BDE810405FEA827C24BF51F8043B5C
:1005200040F8043B08BF7047D20728BF31F8023BB0
:1005300048BF11F8012B28BF20F8023B48BF00F844
:10054000012B70474FF000020429C0F0128010F018
:10055000030C00F01B80CCF1040CBCF1020F18BF9F
:1005600000F8012BA8BF20F8022BA1EB0C0100F032
:100570000DB85FEAC17C24BF00F8012B00F8012B05
:1005800048BF00F8012B70474FF0000200B513463A
:1005900094469646203922BFA0E80C50A0E80C50A3
:1005A000B1F12001BFF4F7AF090728BFA0E80C5054
:1005B00048BF0CC05DF804EB890028BF40F8042B4D
:1005C00008BF704748BF20F8022B11F0804F18BFBA
:1005D00000F8012B704770477047704710B500F066
:1005E00009F8006810BD10B5044600F003F8046077
:1005F00010BD0000004870471450002000487047AC
:10060000145000207546FFF7F9FFAE460500694615
:10061000534620F00700854618B020B5FFF792FE3C
:10062000BDE820404FF000064FF000074FF00008F3
:100630004FF0000B21F00701AC46ACE8C009ACE874
:10064000C009ACE8C009ACE8C0098D46704710B5D8
:100650000446AFF300802046BDE81040FFF7FDBD23
:1006600001491820ABBEFEE72600020070470000DB
:1006700030B50C4605000CD0022C0AD90548A11E45
:100680000288284600F036FA291901F8020D000AFE
:10069000487030BDC406002030B50C4605000AD0B5
:1006A000022C08D9601E81B2FF22284600F038FAD9
:1006B000291901F8010C30BD064D074C2878012896
:1006C00003D1207908B103F099FF012005F07EFAEB
:1006D000F4E700006007002004040020FEE70000AB
:1006E000014800F0BFBB00004C0F0020014800F0A3
:1006F000B9BB0000740F002010B500F01FFB00F024
:1007000027FE0221074800F01BFA064800F02CFEE5
:100710000221054800F014FABDE81040024800F03C
:1007200023BE00004C0F0020740F0020054C2078E1
:10073000012801D104F080FD04F09CFC022005F0AA
:1007400045FAF4E76007002004F0A0FD012005F061
:100750003DFAF9E7014800F0A1BE00001C1200209C
:10076000014800F09BBE0000FC100020014800F092
:1007700095BE00007C120020014800F08FBE0000F2
:100780005C110020014800F089BE0000BC1100206F
:100790002DE9F04F85680024099E802D18D0894DE1
:1007A000C563894D456490F83450012D15D001255D
:1007B00080F8345090F83550012D10D0002180F889
:1007C00034100224002180F834102046BDE8F08F58
:1007D0004FF4807141650120F8E70220F6E7022519
:1007E00080F835500025456505682F6847F4802757
:1007F0002F6005682B6103685E608368402B036887
:100800002AD099600168CA60714D704E704FDFF850
:10081000BC81DFF8B891DFF8B8A1DFF8B4B1EA1411
:10082000DFF8A8E10168183630379302A9F14809CA
:100830000AF1600A0BF1180BAEF1300E4FF0006CAC
:1008400041452DD9A94205D0494503D0514501D094
:10085000B14205D1202220E09A600268D160D3E73E
:1008600059451AD0714518D0594D7835A94214D040
:10087000564D3035A94210D0B9420BD0534A183AE0
:10088000914207D0524A9032914203D04F4A4832A7
:10089000914201D11A4600E062464C494C392EE0A3
:1008A000DFF82C8108F1A80841452AD9A94205D0D2
:1008B000494503D0514501D0B14201D120221CE06D
:1008C00059451AD0714518D0414D7835A94214D0F8
:1008D0003E4D3035A94210D0B9420BD03B4A183AB0
:1008E000914207D03A4A9032914203D0374A483277
:1008F000914201D11A4600E06246344950390A60FB
:100900005AE0DFF8CC8008F1480841452AD9A942CD
:1009100005D0494503D0514501D0B14201D1202233
:100920001CE059451AD0714518D0294D7835A94297
:1009300014D0264D3035A94210D0B9420BD0234AED
:10094000183A914207D0224A9032914203D01F4A6E
:100950004832914201D11A4600E062461C491039E2
:10096000CA6029E0A94205D0494503D0514501D0CC
:10097000B14201D120221CE059451AD0714518D04E
:10098000134D7835A94214D0104D3035A94210D0FE
:10099000B9420BD00D4A183A914207D00C4A903216
:1009A000914203D0094A4832914201D11A4600E0EF
:1009B0006246074910398A6001680A6842F00102FC
:1009C0000A60FFE6F151000809520008586402402D
:1009D0001060024001681823CAB2103AB2FBF3F269
:1009E000054B6FF30901032A9B5CC36500D9091D00
:1009F00081650846704700006C7B000810B5014611
:100A000000208B698A6A4FF0C07453B1B3F5005F60
:100A100015D072B1012A0CD0022A0AD0032A09D1BA
:100A200004E01AB1012A06D0022A03D1C96AC90119
:100A300000D5012010BDC96AA142FAD010BD002A1C
:100A4000F7D0012AF2D0022AF3D0032AF3D010BD46
:100A500030B50468256825F4802525600468636046
:100A60008368402B036803D099600068C26030BD82
:100A70009A600068C16030BD70B590F834500024B1
:100A8000012D0CD0012580F8345090F835600025F8
:100A9000012E06D080F834500224204670BD02207A
:100AA00070BD022680F83560456505682E6826F41D
:100AB00080262E6005686B608368402B036808D031
:100AC00099600168CA600068016841F00101016035
:100AD000E3E79A600268D160F5E701680A68D20628
:100AE00004D5C968C90601D505F0E0BC7047704758
:100AF00072B6FEE710B558B1084C491E0BD310F87A
:100B0000013B5340DBB234F8133083EA1222F4E79E
:100B10004FF6FF7010BD104610BD0000A67800080B
:100B200010B5064C04E000BF10F8013B5340E25CF6
:100B3000491E89B2F8D2104610BD0000A677000801
:100B400090F82020012A07D0022A05D0416A41F4FA
:100B50008021416201207047006842690A43426176
:100B600000207047F0B590F820500468A468012D6B
:100B700005D0022D03D0416A41F4802153E014F0E6
:100B8000406F01D1E5004BD5C4F30164022C03D9B9
:100B9000416A41F4000146E00125A5401D608D68D1
:100BA0004FF4C0739DB1CE6835434E6845EAC60523
:100BB000066803EB0417F5514FF4C275076805EB9F
:100BC00004150E697E51097D012905D009E00E88C2
:100BD000CD6845EA4655EBE701684E5946F4807604
:100BE0004E511179D2F805504FF4C67641EA0525E9
:100BF000016806EB04168D511178D2F801204FF4EC
:100C0000C47541EA0221026805EB041551510068E0
:100C100003EB0411425842F0010242500020F0BDA3
:100C2000416A41F4001141620120F0BD10B590F815
:100C30002020012A07D0022A05D0416A41F48021F0
:100C40004162012010BD3B48D0F8002242F0010271
:100C5000C0F80022D0F8002222F47C52C0F8002212
:100C6000D0F800224B6A42EA0322C0F800220A7D33
:100C700002F01F0301229A40D0F81C329343C0F8BF
:100C80001C32CB69B3B9D0F80C329343C0F80C32A4
:100C90008C894B6864F31F434C6900EBC404C4F8AF
:100CA00040320C890B6864F31F434C6900EBC404A9
:100CB000C4F84432CB69012B16D1D0F80C3213435F
:100CC000C0F80C320C884B6864F31F434C6900EB8E
:100CD000C404C4F840320C89CB6864F31F434C69E8
:100CE00000EBC404C4F844328B69002BD0F8043202
:100CF0000ED01343C0F804320B69002BD0F8143225
:100D000008D01343C0F81432096A012904D008E05E
:100D10009343EFE79343F5E7D0F81C121143C0F873
:100D20001C12D0F8001221F00101C0F800120020BE
:100D300010BD0000006400407047000070B50C4C0E
:100D40000025012625606560A560E56025612662B5
:100D50006561C4E9065621460648FFF767FFC4E906
:100D600004562146BDE870400348FFF75FBF00000E
:100D7000200800204C0F0020740F002030B590F8A0
:100D80002040012C05D0022C03D0416A41F480217F
:100D90005DE00468002955D02469A40754D04FF4BD
:100DA000D874056804EB01142D5915F004059560FD
:100DB00005682D594ED0ED08556005682C5904F092
:100DC0000204D4604FF4DA74056804EB01142D5961
:100DD00005F00F05156105682D59C5F307259561C7
:100DE00005682C59240C54614FF4DC72046802EB42
:100DF0000112A4581C700468A458240A5C7004688A
:100E0000A458240C9C700468A258120EDA704FF497
:100E1000DE72046802EB0112A4581C710468A45825
:100E2000240A5C710468A458240C9C710468A258BC
:100E3000120EDA71006881B1016941F0200101618F
:100E4000002030BDE468A8E7416A41F40011416226
:100E5000012030BD6D0D1560AFE7C16841F0200184
:100E6000C160EDE72DE9F05F0546006800244669A2
:100E7000D0F804908768D0F80CB0D0F810A0D0F863
:100E80001880F10748D0F90714D001218160B80714
:100E900003D5284600F0A1FA0CE0780702D54FF4FC
:100EA000006407E0380702D54FF4805402E028467A
:100EB00000F092FAF80516D529684FF48070886022
:100EC000B80503D5284600F08AFA0CE0780502D56B
:100ED00044F4005407E0380502D544F4804402E0AD
:100EE000284600F07BFAF80316D529684FF48030C5
:100EF0008860B80303D5284600F073FA0CE0780345
:100F000002D544F4004407E0380302D544F48034A9
:100F100002E0284600F064FA300707D55FEACB60AC
:100F200004D52968102044F40074C86070074FF09D
:100F3000080707D55FEA0B7004D52868C760284604
:100F400000F09AF9B00706D52868C068800702D07B
:100F5000284600F093F9700607D55FEACA6004D509
:100F60002968102044F480640861B00607D55FEA60
:100F70000A7004D528680761284600F0E7F9F006F2
:100F800006D528680069800702D0284600F0DFF9FE
:100F9000B00308D55FEAC96005D52968102048600C
:100FA000284600F0DFF9F00307D55FEA097004D5A1
:100FB00028684760284600F015FA300446D55FEAF5
:100FC000497040D5F00504D55FEAC87001D044F0FF
:100FD0000104B00504D55FEA887001D544F002042D
:100FE000700504D55FEA487001D544F0040430056B
:100FF00029D518F0700F26D008F07000402815D0C1
:1010000006DC102809D020280AD0302816D10AE0A2
:1010100050280ED0602811D10EE044F008040DE0F5
:1010200044F010040AE044F0200407E044F04004D7
:1010300004E044F0800401E044F48074286881698D
:1010400021F070018161296804204860002C05D0DE
:10105000686A204368622846FFF76EFEBDE8F09F8D
:1010600070B5040003D094F8200010B104E0012012
:1010700070BD204600F082F82068016841F001014F
:10108000016000F07BFC0546052604E000F076FCDC
:10109000401B0A2811D820684068C007F6D0206895
:1010A000016821F00201016000F068FC05460BE0D8
:1010B00000F064FC401B0A2806D9606A40F4003046
:1010C000606284F82060D2E7206840688007EFD42F
:1010D000207E0128206801683DD021F08001016058
:1010E000607E01282068016838D021F0400101604D
:1010F000A07E01282068016833D021F02001016022
:10110000E07E0128206801682ED041F010010160C6
:10111000207F01282068016829D021F008010160A2
:10112000607F01282068016824D021F0040101605B
:10113000D4E902010843D4E9041211430843616869
:10114000491E08432168C86100206062012084F8BC
:101150002000002070BD41F08001C0E741F0400157
:10116000C5E741F02001CAE721F01001CFE741F0C7
:101170000801D4E741F00401D9E70000F0B587B0D9
:10118000044614216846FFF7FFF9364B3648DFF86E
:10119000D0E01968D4F800C0334A03250226092795
:1011A00010300024491CF44522D11960012907D1CF
:1011B000016841F000710160006800F00070059066
:1011C000106840F0080010601068CDE9005600F08B
:1011D0000800CDE9047069462448CDE9024500F0D5
:1011E000CFFA00221146142000F05AFC142032E0FD
:1011F000DFF87CE0F44530D1D0F800C04CF0806CD2
:10120000C0F800C0D0F800C001290CF0806CCDF807
:1012100014C0196007D1016841F0007101600068D5
:1012200000F000700590106840F002001060106837
:1012300002AB00F0020005906020CDE9000683E8D3
:10124000B00069460B4800F09BFA0022114640208E
:1012500000F026FC402000F015FC07B0F0BD0000B7
:1012600000640040E406002030380240000C0240D8
:1012700000680040000402407047000010B500689C
:101280002749284C884229D1274B2246002127484C
:10129000FFF774FD002820D1206801281DD12248C5
:1012A000234B027802F0010119702249C2F3410474
:1012B0000C70C2F3C0048C70C2F30012CA70427882
:1012C00002F00F049C701C4C1209227082780A7183
:1012D000C178007941EA0020586010BD1749884262
:1012E000FBD1114B0F4A00211548FFF747FD00289D
:1012F000F3D1144A2368002152F82100047E012C06
:1013000008D1C48A9C4205D10F490A68BDE8104043
:1013100005491047491C89B20829EDD310BD0000CA
:101320000064004060080020310600204C0F0020BF
:101330006007002000000020050000200068004039
:10134000740F0020CC030020EC030020704770478E
:10135000034800210160416001618160C160704704
:10136000600800207047000070B5044690F8200027
:10137000012804D0606A40F40020606218E0022076
:1013800084F820002068016821F00101016000F06C
:10139000F5FA05460EE000BF00F0F0FA401B0A28FF
:1013A00008D9606A40F400306062052084F82000AB
:1013B000012070BD20684068C007EDD1606270BD3B
:1013C000044908600020486008228860C1E90302DF
:1013D000704700004808002070477047704770470A
:1013E0007047704770472DE9F0410446876D00F063
:1013F000C5FA064694F835000025022806D080205C
:10140000606584F834500120BDE8F08120680168EF
:1014100021F0160101602068416921F080014161DD
:10142000206C08B9A06C20B12068016821F0080187
:1014300001602068016821F0010101600CE000F00A
:101440009DFA801B052807D920206065032084F8B9
:10145000350084F83450D7E720680068C007EED123
:1014600094F85C103F208840B860012084F8350073
:1014700084F834500020C7E790F83510022903D0D3
:101480008021416501207047052180F835100068F2
:10149000016821F001010160002070472DE9F84347
:1014A00004464FF00009CDF8009063484FF4165100
:1014B000A56D0068B0FBF1F72E6894F85C10082069
:1014C00000FA01F131420FD021680A6852070BD5AA
:1014D0000A6822F004020A6094F85C108840A86050
:1014E000606D40F00100606594F85C104FF00108F9
:1014F00008FA01F0304208D021684969090604D58C
:10150000A860606D40F00200606594F85C100420F3
:101510008840304208D021680968890704D5A8604E
:10152000606D40F00400606594F85C101020884005
:10153000304218D021680968090714D5A8602068CE
:101540000168490304D50068000308D5A16C07E0D1
:101550000168C90503D4016821F008010160216C0C
:1015600009B12046884794F85C102020884030421A
:1015700031D021680968C9062DD5A86094F83500D6
:1015800005282068016806D0490347D50068000394
:101590001DD4616C1CE021F01601016020684169D6
:1015A00021F080014161206C08B9A06C20B1206855
:1015B000016821F00801016094F85C103F20884028
:1015C000A86084F8358084F83490216D1FE0E16BC9
:1015D00009B120468847606D00282BD0606DC00798
:1015E00014D0052084F835002068016821F001013D
:1015F00001600098401C0090B84203D82068006841
:10160000C007F6D184F8358084F83490E16C002965
:1016100010D001B02046BDE8F04308470168C90575
:10162000D5D4016821F01001016084F8358084F878
:101630003490CCE7BDE8F883F40600202DE9F041B2
:10164000044600F09BF906465CB1022084F83500A0
:10165000002584F834502068016821F00101016000
:101660000DE00120BDE8F08100F088F9801B05281D
:1016700005D920206065032084F83500F2E7206852
:101680000068C007F0D12268116820480140D4E901
:1016900001031843D4E903363343184363691843FD
:1016A000A3691843E3691843236A18430843616A2E
:1016B000042903D1D4E90B131943084310602068AF
:1016C0004069666A20F0070130460E43012704286E
:1016D0000CD1A06A0643E06A40B12046FFF78EF9BC
:1016E00020B14020606584F83570BAE72068466113
:1016F0002046FFF76FF994F85C203F21914081600C
:10170000656584F835700020ACE700003F8010F07C
:101710002DE9F0410446866D90F83400002501283B
:101720000DD0012084F8340094F835700020012F8A
:1017300007D084F8340002252846BDE8F081022055
:10174000FBE7022784F8357060652046FFF780F9D3
:1017500094F85C103F208840B0602068016841F038
:1017600016010160206C20B12068016841F0080179
:1017700001602068016841F001010160DCE70000C0
:101780002DE9F84FDFF8BCA1002201250AF1040B76
:1017900003264FF00F090BF1040E00BF0B6805FA8A
:1017A00002F42340A34270D10F7907F00307012F01
:1017B00001D0022F16D187684FEA420806FA08FCCA
:1017C00027EA0C07D1F80CC00CFA08FC4CEA070C0D
:1017D000C0F808C04768A7430C79C4F300149440CC
:1017E0003C4344600C79E443A4070AD0C4684FEA40
:1017F000420C06FA0CF7BC438F6807FA0CF7274334
:10180000C7600C7904F00304022C12D1D40800EB59
:10181000840CDCF820405707FF0E09FA07F824EA89
:101820000804D1F8108008FA07F848EA0408CCF850
:10183000208004684FEA420C06FA0CF7BC430F798B
:1018400007F0030707FA0CF7274307604C6814F406
:10185000403F70D03C4C276847F48047276024689D
:1018600022F0030704F480440094384C07EB040C86
:10187000DCF8084897074FEA177809FA08F7BC43DD
:10188000334FB84202D1002724E054E0314FB84230
:1018900001D101271EE0304FB84201D1022719E0E3
:1018A0002E4FB84201D1032714E02D4FB84201D189
:1018B00004270FE02B4FB84201D105270AE02A4F39
:1018C000B84201D1062705E0284FB84201D10727C9
:1018D00000E0082707FA08F72743CCF80878DAF879
:1018E00000405746D1F804C09C435FEACC3C00D589
:1018F0001C433C60DBF800405F46D1F804C09C43C9
:101900005FEA8C3C00D51C433C60DEF80040774623
:10191000D1F804C09C435FEACC2C00D51C433C604A
:10192000084F0C373C68D1F804C09C435FEA8C2C0C
:1019300000D51C433C60521C102AFFF42FAFBDE8B9
:10194000F88F0000003C0140443802400030014064
:10195000000002400004024000080240000C024067
:10196000001002400014024000180240001C024017
:101970000AB1816170470904FBE7000001488068F3
:1019800070470000E806002000684AF6AA210160BE
:1019900000207047024881680278114481607047D6
:1019A000E80600200B4810B5016841F400710160A1
:1019B000016841F480610160016841F48071016057
:1019C000032000F08DF80F2000F006F800F03EF83C
:1019D000002010BD003C024010B5014688B0002236
:1019E0001C2000F05DF81C2000F04CF81448002486
:1019F000016841F001010160006805A900F00100E3
:101A00000690684600F018F900F036F90D494000DC
:101A1000B0FBF1F10C484FF08042491E026040F2E9
:101A2000E732C0E90324C0E9011400F02FFB10B134
:101A3000012008B010BD044800F056FBF9E7000093
:101A40004038024040420F00DC1200200C4882B0B7
:101A5000016841F480410160006800F4804000901A
:101A60000748001F016841F08051016000680022B2
:101A700000F0805000900F21901E02B000F010B8CE
:101A800044380240002809DB00F01F020121914088
:101A90004009800000F1E020C0F80011704700000C
:101AA000F0B40E4B1B680C46C3F30223C3F10705C9
:101AB000042D00D90425191D072901D2002300E0B7
:101AC000DB1E012606FA05F1491E214099409E4081
:101AD000761E16403143F0BC01F029BD0CED00E04C
:101AE000064900F0070208684FF6FF03184040EA75
:101AF0000220034A10430860704700000CED00E02C
:101B00000000FA052DE9F0470E46050065D0DFF824
:101B10001481D8F80000F7B200F00700B04207D2F5
:101B200088F80070D8F8000000F00700B04254D1E7
:101B300028683D4C810712D5400703D5206840F442
:101B4000E05020602878000703D5206840F460400A
:101B500020602068A96820F0F00008432060287801
:101B6000C0072DD0304968680839012812D00228F2
:101B700013D0032811D00968890700292DDA2168BC
:101B800021F0030101432160FFF7F8FE814641F295
:101B9000883A0EE009688903EFE709688901ECE7F4
:101BA000FFF7ECFEA0EB0901514502D90320BDE887
:101BB000F0872068696800F00C00B0EB810FEFD16E
:101BC000D8F80010404601F00701B14207D907706C
:101BD000006800F00700B04201D00120E7E7287854
:101BE000400705D52068E96820F4E05008432060EC
:101BF0002878000706D52068296920F4604040EA6B
:101C0000C100206000F058F82168084AC1F30311B0
:101C1000515CC8400649086006480068FFF7DCFED2
:101C20000020C4E7003C024008380240747B0008F2
:101C3000F4060020EC0600200F2202600C4A136814
:101C400003F003034360136803F0F0038360136839
:101C500003F4E053C36012684FF4E05303EAD20286
:101C600002610448006800F0070008607047000047
:101C700008380240003C02400448054900680968F1
:101C8000044AC1F38221515CC8407047F406002029
:101C900008380240847B0008044805490068096848
:101CA000044AC1F34231515CC8407047F406002039
:101CB00008380240847B0008154810B5006810F011
:101CC0000C02144813D01449042A0FD0082A0ED14C
:101CD0000F4C241F2268236802F03F025B0207D5E5
:101CE0002068C0F38810A0FB010106E0084610BD83
:101CF0002168C1F38811A1FB00010023FEF734FB2A
:101D00002168C1F30141491C4900B0FBF1F010BD4D
:101D1000083802400024F40040787D012DE9F84F96
:101D200004006ED02078DFF84C93C007A9F10405B9
:101D30004AD009F104000168C1F38101012908D0EA
:101D40000068C0F3810002280AD1D9F800004002DF
:101D500006D52868800337D560680028E1D033E0D5
:101D60006068B0F5803F10D0B0F5A02F286810D083
:101D700020F480302860286820F480202860606883
:101D8000A8B1FFF7FBFD06460DE0286840F480305F
:101D9000F4E740F480202860F7E700BFFFF7EEFD8E
:101DA000801B642873D828688003F7D50CE0FFF700
:101DB000E5FD064605E000BFFFF7E0FD801B642857
:101DC000F0D828688003F7D42078DFF8AC82800749
:101DD0004FF0000A3ED5A748001D016811F00C0F16
:101DE00008D00068C0F3810002280BD1D9F80000A8
:101DF000400207D42868800716D5E068012800D182
:101E000012E033E1E068B8B10120C8F80000FFF744
:101E1000B5FD064605E000BFFFF7B0FD801B0228B8
:101E2000C0D828688007F7D52868216920F0F80015
:101E300040EAC10028600DE0C8F800A0FFF79EFD51
:101E4000064604E0FFF79AFD801B02281FD8286889
:101E50008007F7D42078000722D5864F874861692C
:101E6000703771B101210160FFF788FD064604E07B
:101E7000FFF784FD801B022809D838688007F7D552
:101E80000EE0C0F800A0FFF779FD064605E082E00D
:101E9000FFF774FD801B02287DD838688007F7D4CF
:101EA0002078400768D5DFF8CCB100270BF13C0B58
:101EB000DBF80000C0000BD4DBF8001041F08051CB
:101EC000CBF80010DBF80000012700F080500090F4
:101ED0006B4E3068C00510D4306840F480703060BC
:101EE000FFF74CFD009005E0FFF748FD0099401A10
:101EF000022850D83068C005F6D55E4EA0686C3612
:101F000001280FD00528306810D020F00100306083
:101F1000306820F004003060A068B8B1FFF72EFDF3
:101F200000900FE0306840F00100F4E740F004005A
:101F30003060F7E7FFF722FD0099411A41F288303F
:101F4000814266D830688007F4D50EE0FFF716FDB1
:101F5000009007E0FFF712FD0099411A41F2883026
:101F6000814256D830688007F4D42FB1DBF80010D6
:101F700021F08051CBF80010A069C8B33D49091D7C
:101F80000968C1F3810102294AD00228504607D0CE
:101F9000C8F8600000E03CE0FFF7F0FC04463BE0DE
:101FA0004746C8F86000FFF7E9FC064605E000BFB9
:101FB000FFF7E4FC801B02282BD828688001F7D4A7
:101FC000D4E907010843A16A2E4A490802EB0141FE
:101FD000626A41EA8211084394F82C1040EA0161D8
:101FE000C9F8001001203866FFF7C8FC044606E077
:101FF0003EE000BFFFF7C2FC001B022809D828689A
:102000008001F7D534E000BFFFF7B8FC001B0228C1
:1020100002D90320BDE8F88F28688001F4D427E0B6
:102020000128F7D0D9F80000E26900F4800191425C
:102030001CD1226A00F03F01914217D147F6C071CE
:10204000626A0140B1EB821F10D1A26A4FF0FF33E8
:1020500000F4403103EB5202B1EB024F06D194F889
:102060002C1000F07060B0EB016F01D00120D1E7BF
:102070000020CFE70438024000004742800E47426C
:10208000007000400000FFFF7047704710B504006B
:1020900003D094F83D0010B107E0012010BD0020EE
:1020A00084F83C00204600F01EF8022084F83D0031
:1020B000211D206800F036FF012084F8460084F8D6
:1020C0003E0084F83F0084F8400084F8410084F822
:1020D000420084F8430084F8440084F8450084F802
:1020E0003D00002010BD704790F83D10012901D03F
:1020F00001207047022180F83D100168CA6842F053
:102100000102CA6000681149884214D0B0F1804FC2
:1021100011D00F4988420ED00E4988420BD00E498B
:10212000884208D00D49884205D00D49884202D026
:102130000C49884204D1816801F00701062903D0C7
:10214000016841F00101016000207047000001407A
:102150000004004000080040000C00400004014062
:102160000040014000180040704770B50446006808
:1021700001694FF00005C943890715D4C168C943F7
:10218000890711D4E91E0161012020772068806948
:102190008007204602D0FFF7E7FF04E000F098F840
:1021A000204600F096F8257720680169C943490761
:1021B00017D4C168C943490713D46FF00401016102
:1021C000022020772068806910F4407F204602D0EA
:1021D000FFF7CAFF04E000F07BF8204600F079F832
:1021E000257720680169C943090716D4C168C94326
:1021F000090712D46FF008010161042020772068DC
:10220000C0698007204602D0FFF7AEFF04E000F06F
:102210005FF8204600F05DF8257720680169C94322
:10222000C90617D4C168C943C90613D46FF0100199
:102230000161082020772068C06910F4407F2046A3
:1022400002D0FFF791FF04E000F042F8204600F0D2
:1022500040F8257720680169C943C90708D1C168DA
:10226000C943C90704D1891E0161204600F032F834
:1022700020680169C943090609D4C168C943090630
:1022800005D46FF0800101612046FFF7FDFE206854
:102290000169C943490609D4C168C943490605D43F
:1022A0006FF040010161204600F01BF820680169D1
:1022B000C94389060BD4C168C943890607D46FF0A6
:1022C000200101612046BDE87040FFF7DEBE70BD11
:1022D000704770470068B0F1804F01D1FFF75ABBDB
:1022E0007047704770477047F8B501680446086842
:1022F000CA684B6910F00F0F4FF0000559D003F07A
:10230000010602F49077374365D0C10705D0D105A7
:1023100003D5216C41F001012164410705D5D9079E
:1023200003D0216C41F002012164810705D5D90752
:1023300003D0216C41F004012164010707D502F0AC
:102340002001314303D0216C41F008012164216C4C
:1023500000293AD0800604D5900602D5204600F028
:10236000D9FE20684069216CC0F38010090700D4B1
:1023700060B3204600F099FE20684069400621D5F0
:102380002068143050E8001F21F0400140E800129E
:10239000002AF5D1A06BA8B16C490165A06BFFF7CD
:1023A0006BF8002811D0A06B016D01B0BDE8F040C2
:1023B000084783060FD593060DD52046BDE8F840A3
:1023C00000F0A8BE2046FFF78EFFF8BD2046FFF7BD
:1023D0008AFF2564F8BD266B2023012E79D1C6061D
:1023E00077D5D60675D508684868009048694006D4
:1023F00040D5A16B086840680004000CEAD0A28DAB
:102400008242E7D9E085C869B0F5807F2DD0206889
:102410000C3050E8001F21F4807140E80012002ABF
:10242000F5D12068143050E8001F21F0010140E888
:102430000012002AF5D12068143050E8001F21F066
:10244000400140E80012002AF5D184F83E302563AF
:1024500020680C3050E8001F21F0100140E8001205
:10246000002AF5D1A06BFEF7BEFFA08DE18D401ACA
:1024700081B229E0A08DE18D401A81B2E08D002863
:10248000A8D00029A6D020680C3050E8002F22F4F4
:10249000907240E80026002EF5D12068143050E8F4
:1024A000002F22F0010240E80026002EF5D184F82A
:1024B0003E30256320680C3050E8002F22F01002D7
:1024C00040E80023002BF5D12046FFF70BFFF8BDB5
:1024D000FFE705062BD5150629D594F83D002128E0
:1024E000F5D1A068B0F5805F01D12069B0B1206A54
:1024F000411C2162216800784860E08C401E000485
:10250000000CE084E3D12068C16821F08001C16043
:102510002068C16841F04001C160D8E7206A0088A6
:10252000C0F308004860206A801C2062E5E740068E
:10253000CDD55006CBD5CA68204622F04002CA60ED
:1025400084F83D3000F000FAC1E7000005300008D3
:1025500070B5040004D094F83D00002510B106E0E9
:10256000012070BD84F83C50204600F023F8242060
:1025700084F83D002068C16821F40051C160204604
:1025800000F028FE2068016921F490410161206873
:10259000416921F02A0141612068C16841F400517C
:1025A000C1602564202084F83D0084F83E000020AE
:1025B00070BD00002DE9F04F87B005461421684634
:1025C000FDF7E2FFB049B048AE4B2A681038032649
:1025D000DFF8B8E200244F054FF002084FF0080C76
:1025E0004FF4806A4FF4807B9A424BD10A6842F4E0
:1025F00000220A60096801F400210591016841F098
:10260000010101600068CDE9006800F00100CDE93A
:1026100004C0CDE9024669467046FFF7B1F89D4E09
:102620009B483060C6E90174C6E9034A7461C6E993
:10263000064B346230467462FFF700F808B1FEF7CB
:1026400057FAAE63B563934E914860363030E6E892
:1026500002074020A6E811048E4846F8144960306D
:10266000B461F46134627462FEF7E8FF08B1FEF70A
:102670003FFA6E63002205213420B563FFF710FA9C
:1026800034209EE0844B9A422CD10A6842F4801296
:102690000A60096801F480110591016841F00401A4
:1026A0000160016801F004010591016841F0080131
:1026B00001600068CDE9024600F00800059098141A
:1026C000CDE9000865466946CDF810C07348FFF7AC
:1026D00057F80420CDE90008CDE902466946049583
:1026E0006F481FE06F4B4FF007099A421FD16649B0
:1026F000091D0A6842F010020A60096801F0100121
:102700000591016841F001010160006802AA00F032
:10271000010005904FF4C060CDE9000882E8500246
:1027200069467046FFF72CF807B0BDE8F08F5E4BA6
:102730009A4249D10A6842F400320A60096801F4F9
:1027400000310591016841F001010160016801F06B
:1027500001010591016841F0080101600068CDE9BF
:10276000024600F00800CDE90490CDE900C86946B2
:102770007046FFF705F82020CDE9000802AA694657
:1027800082E850024648FEF7FBFF424E4048C03602
:1027900048303060C6E90174C6E9034A7461C6E98D
:1027A000064B346230467462FEF748FF08B1FEF70C
:1027B0009FF9AE63002211462620B563FFF770F93A
:1027C0002620FFF75FF9AFE7384B9A42ACD10A6891
:1027D000002442F480220A60096801F480210591F6
:1027E000016841F002010160006802AA00F00200E5
:1027F00005904FF44060CDE9000882E85002694638
:102800002B48FEF7BDFF2249DFF8A8801839404663
:10281000C8F80010C0E90174C0E9034AC8F81440C0
:10282000C0E9064BB946C8F8204056465F46C8F88E
:102830002440FEF703FF08B1FEF75AF91D4C144877
:10284000C5F8388060341830C8F83850C4E9000939
:102850004020A0600020C4E903066061C4E90607C7
:10286000206260622046FEF7E9FE08B1FEF740F9FB
:102870006C63002205212720A563FFF711F92720AB
:102880009FE70000004C004040380240000002403A
:1028900040600240FC100020005000400008024050
:1028A000000C02400010014000440040004800407D
:1028B000000402401C1200207047000070B504465E
:1028C00090F83D00202836D191B38AB394F83C00AB
:1028D000012830D0012084F83C002162A284E284E7
:1028E00000252564212084F83D00636B1348D863DC
:1028F000636B13481864636B1248D864606B1346AB
:1029000005652668606B321DFEF702FF21686FF0D7
:102910004000086084F83C502068143050E8001FE4
:1029200041F0800140E80012002AF5D1002070BD7E
:10293000FFE70120FBE70220F9E700005F30000815
:10294000A13000081530000870477047FEE700000E
:102950000448FFF719F802F0E3FC012003F036F910
:10296000F6E700009C0F002010B5064C06492046F3
:10297000D4F8742190472046D4F87821BDE810405F
:1029800001491047B404002018040020104810B575
:102990000E4901600321416000214FF40022816053
:1029A000C0E903124FF440124261017601224276DF
:1029B0008276C17601774277FEF752FB002803D07A
:1029C000BDE81040FEF794B810BD00000064004060
:1029D0004C0F0020104810B50E49016003214160E2
:1029E00000214FF400228160C0E903124FF440122D
:1029F00042610176012242768276C1760177427782
:102A0000FEF72EFB002803D0BDE81040FEF770B89B
:102A100010BD000000680040740F0020194808B580
:102A2000016841F4001101600068002200F4001008
:102A3000009005210C20FFF733F80C20FFF722F857
:102A4000002205210D20FFF72BF80D20FFF71AF8C3
:102A5000002205210E20FFF723F80E20FFF712F8C1
:102A6000002205210F20FFF71BF80F20FFF70AF8BF
:102A7000002205211020FFF713F8BDE808401020C0
:102A8000FFF700B83038024010B5B2B01C22274919
:102A90006846FDF725FD0021684603F0A3F8244CA5
:102AA00022491C2220601C3107A8FDF719FD0021D6
:102AB00007A803F097F81D4960601C2238310EA862
:102AC000FDF70EFD00210EA803F08CF81749A06059
:102AD0001C22543115A8FDF703FD002115A803F0B1
:102AE00081F81249E0601C2270311CA8FDF7F8FC47
:102AF00000211CA803F076F80C4920611C228C31BF
:102B000023A8FDF7EDFC002123A803F06BF807498B
:102B100060611C22A8312AA8FDF7E2FC00212AA846
:102B200003F060F8A06132B010BD0000A87A000880
:102B3000C806002070B586B014216846FDF724FD54
:102B400024480024016841F004010160016801F09B
:102B500004010591016841F080010160016801F004
:102B600080010591016841F001010160016801F0F7
:102B700001010591016841F002010160016801F065
:102B800002010591016841F0080101600068124EE0
:102B900000F00800059001224FF4D8413046FEF7BE
:102BA000E7FE4FF4C04000900125CDE9015469468D
:102BB00030460394FEF7E4FD4FF44060CDE9000594
:102BC0000220CDE9024069463046FEF7D9FD06B045
:102BD00070BD000030380240000802400C4810B5BB
:102BE0000A4901604FF4E1314160002181600C220B
:102BF000C160C0E904128161C161FFF7A9FC00282E
:102C000003D0BDE81040FDF773BF10BD004C00407D
:102C1000A80F00200C4810B50A4901604FF4E131BB
:102C20004160002181600C22C160C0E90412816111
:102C3000C161FFF78DFC002803D0BDE81040FDF70F
:102C400057BF10BD00500040EC0F00200C4810B5DD
:102C50000A4901604FF4E1314160002181600C229A
:102C6000C160C0E904128161C161FFF771FC0028F5
:102C700003D0BDE81040FDF73BBF10BD0010014080
:102C8000301000200C4810B50A4901600B49416022
:102C9000002181600C22C160C0E904128161C16120
:102CA000FFF756FC002803D0BDE81040FDF720BF19
:102CB00010BD00000044004074100020A0860100F8
:102CC0000C4810B50A4901604FF4E1314160002120
:102CD00081600C22C160C0E904128161C161FFF70B
:102CE00037FC002803D0BDE81040FDF701BF10BD40
:102CF00000480040B8100020FEE7FEE7054C0548FC
:102D0000E16C884703F00AFE02F028F9022002F085
:102D10005DFFF4E73C04002090EC020ADFED271A87
:102D200030EE601AD0ED030A9FED230A20EE800AF0
:102D300001EE210A80ED020A70EE601AC0ED0C1A55
:102D4000D0ED080A70EE800AC0ED080A90ED091A6D
:102D5000F4EEC10AF1EE10FA06DCB1EE411AF4EE1F
:102D6000C10AF1EE10FA01D2F0EE410AC0ED080AF4
:102D700080ED030A90ED041A21EE000A90ED051A89
:102D800001EE200AD0ED060A00EEA10A80ED070A46
:102D9000D0ED0B0AB4EEE00AF1EE10FA06DCF1EE2B
:102DA000600AB4EEE00AF1EE10FA01D2B0EE600A69
:102DB00080ED070A704700003333333F9A99993EFC
:102DC0001A481B49C278012A0BD0022A08D19FED6C
:102DD000190A81ED000A81ED010A00BF81ED020AA6
:102DE0007047124AD0ED020A1432B2F9063000EEF2
:102DF000103AB8EEC00A20EE200A81ED000AB2F9BE
:102E00000430D0ED030A00EE103AB8EEC00A20EE0E
:102E1000200A81ED010AB2F90020D0ED040A00EE8B
:102E2000102AB8EEC00A20EE200AD7E704040020DA
:102E30006C07002000000000012002F0C7FEFBE745
:102E400010B5502080F31188BFF34F8FBFF36F8F01
:102E500003F05CFE18B104494FF080500860002078
:102E600080F3118810BD000004ED00E030B593B090
:102E700030216846FDF788FB14210CA8FDF784FB80
:102E80001F480025016841F080510160006800F092
:102E9000805011901B48016841F480410160006836
:102EA000022400F480401190092000904FF48030FB
:102EB00001900120CDE905048005079019200890B4
:102EC0004FF4A870CDE9090404200B906846FEF782
:102ED00025FF08B172B6FEE70CA90F2081E831008A
:102EE0004FF4A0500F904FF48050109005210CA883
:102EF000FEF708FE002801D072B6FEE713B030BD21
:102F000040380240007000400248016841F47001FE
:102F10000160704788ED00E00148FFF726B9000026
:102F2000DC120020F0B50268254C264D264E274FB6
:102F3000274B4FF0804CA04209D0604507D0A842F3
:102F400005D0B04203D0B84201D0984204D122F05B
:102F5000700E4A6842EA0E02A0421BD0604519D0AA
:102F6000A84217D0B04215D0B84213D0984211D021
:102F7000184DA8420ED0184DA8420BD0174DA842AC
:102F800008D0174DA84205D0164DA84202D0164DC4
:102F9000A84203D122F44075CA682A434D6922F041
:102FA00080022A4302608A68C2620A688262A04282
:102FB00001D0984201D10969016301214161F0BD4D
:102FC000000001400004004000080040000C0040E8
:102FD000000401400040014000440140004801401D
:102FE00000180040001C00400020004010B50448BC
:102FF000FDF773FDBDE810400148FFF775B900000B
:10300000A80F002010B5806B0021C185C184FFF797
:103010006AF910BD70B5846B2068406994F83D1062
:10302000C0F3C0100025212904D118B1E584204641
:1030300000F062F82068406994F83E10C0F38010F8
:10304000222904D118B1E585204600F02EF8206C25
:1030500040F0100020642046FFF745F970BD10B520
:103060000146806B09680968C90516D40021C1842E
:103070000168143151E8002F22F0800241E800235A
:10308000002BF5D101680C3151E8002F42F04002CD
:1030900041E80023002BF5D110BDFFF755FC10BD12
:1030A00010B5806BFFF751FC10BD01680C3151E881
:1030B000002F22F4907241E80023002BF5D1016823
:1030C000143151E8002F22F0010241E80023002BC7
:1030D000F5D1016B012909D101680C3151E8002FAC
:1030E00022F0100241E80023002BF5D1202180F8C6
:1030F0003E1000210163704701680C3151E8002F38
:1031000022F0C00241E80023002BF5D1202180F8F5
:103110003D10704708B590F83E10222901D00220DA
:1031200008BD82684FF480539A4201D1016921B1F0
:10313000816A9A421BD04AB10AE00268816A5268E9
:10314000C2F308020A80816A891C08E0026972B130
:103150000268526802F07F020A70816A491C81622B
:10316000C18D491E0904090CC18503D019E002680C
:103170005268F1E70168CA6822F02002CA6001685B
:10318000CA6822F48072CA6001684A6922F00102AA
:103190004A61202180F83E10016B012903D0FFF71E
:1031A0008BFB002008BD0021016301680C3151E850
:1031B000002F22F0100241E80023002BF5D1016816
:1031C0000A68D20602D50A6849680091818DFFF726
:1031D00089F8E6E770B5044600680169E26821F401
:1031E0004051114301612169A068E26908436169A6
:1031F000114308432168CA6849F20C639A430243A9
:10320000CA6020684169A26921F44071114341619B
:1032100031492068884202D03049884202D1FEF705
:103220003BFD01E0FEF728FDE2690023192164253A
:103230003226B2F5004F626828D0A0FB0101930F3F
:103240009200FDF791F80146B0FBF5F06FF018021F
:10325000504301EB800006EB0010B0FBF5F000F0EE
:10326000F002B1FBF5F002EB0012B1FBF5F06FF0EC
:103270001803584301EB800006EB0010B0FBF5F09B
:1032800000F00F0021681044886070BDA0FB0101B0
:1032900092185B41FDF768F80146B0FBF5F00201BA
:1032A000B1FBF5F06FF01803584301EB800006EB1B
:1032B000C000B0FBF5F000F0F80002EB4002B1FBFB
:1032C000F5F0584301EB800006EBC000B0FBF5F0D1
:1032D00000F00700D6E70000001001400014014094
:1032E0007047000010B50448FDF7F7FBBDE810403B
:1032F0000148FEF7F9BF0000741000200C4808B523
:1033000001680A684A680092CA6842F01002CA60FE
:1033100001684A6942F040024A6112210091016845
:10332000044B806BA3F11802091DFDF731FA08BDAB
:1033300074100020F20900200188C1F30A0220491C
:10334000A2F580620A8042788378D20842EA43126A
:10335000C2F30A02A2F580624A808278C378920999
:1033600042EA8302037942EA8322C2F30A02A2F507
:1033700080628A8002794379520842EAC312C2F31A
:103380000A02A2F58062CA80427992090A724279E1
:10339000C2F301124A72C2884A8102898A81428933
:1033A000CA81027B0A74427B4A74C2894A82008ABB
:1033B000C0F30A00A0F5806088820020C8827047B0
:1033C0001804002010B50448FDF787FBBDE8104045
:1033D0000148FEF789BF0000B81000200B4882B0FA
:1033E00001680A684A680092CA6842F01002CA601E
:1033F00001684A6942F040024A610168806B4FF4FB
:10340000AF73034A091D02B0FDF736BBB8100020A8
:103410000A0A002010B504460078A52814D103211B
:10342000204600F057F8C0B201280DD11D212046DA
:1034300000F032F8C0B2012806D12146BDE81040A4
:103440001D220248FDF707B810BD00005E040020F1
:103450000B4882B001680A684A680092CA6842F064
:103460001002CA6001684A6942F040024A6101687C
:10347000806BC823034A091D02B0FDF7FDBA0000A6
:10348000A80F0020680B00200146014801F0C8BFCA
:103490004C0600207047FEE730B50C46050014D0FE
:1034A000022C12D90A48A11E02882846FDF722FBE9
:1034B0002919C2B211F8023C9A4206D111F8011C36
:1034C000B1EB102F01D1012030BD002030BD000034
:1034D000C406002030B50C4605000ED0022C0CD9D5
:1034E000601E81B2FF222846FDF71AFB291911F848
:1034F000011C814201D1012030BD002030BD03B448
:1035000001984100009850EAC12018BF04204A0DDC
:1035100018BF40F0010040F2FF72B2EB515F08BFEC
:1035200040F00200012808BF052002B070470907DB
:10353000090E002804DB00F1E02080F80014704739
:1035400000F00F0000F1E02080F8141D704700002B
:1035500070B59B482DED020B2DED068B079D25F0D8
:103560000044A04218DC9748844202DC0AD1069845
:1035700040B19DED060BBDEC068B02B0BDE870407E
:1035800000F0FABE002DCCBF9FED8F0B9FED900B8E
:10359000BDEC068B02B070BD8F48A04215DD8F4890
:1035A000A042D8BF4FF0FF3458DD9DED060B51EC23
:1035B000100BFFF7A4FF042808BF00F001FF9DEDEA
:1035C000060BBDEC068B02B070BD9DED060B51ECF9
:1035D000100B01F025FECDE9060181489FED828B9D
:1035E000A0423CDD8248A0421FDD00249FED82AB5B
:1035F0009DED060B53EC1A2B51EC100B03F08CFBDA
:103600009DED060B41EC190B53EC1A2B51EC100BF2
:1036100003F024FE53EC182B03F060FF53EC192B3E
:1036200003F02EFCCDE9060149E09DED060B0124D7
:1036300053EC182B51EC100B03F06EFB9DED060BB9
:1036400041EC190B53EC182B51EC100B03F046FF17
:1036500053EC192B03F014FCCDE906012FE0684868
:10366000A0421FDD02249FED689B9DED060B53ECED
:10367000192B51EC100B03F0F1FD53EC182B03F058
:103680004BFB9DED060B41EC180B53EC192B51EC49
:10369000100B03F023FF53EC182B03F0F1FBCDE9E3
:1036A00006010CE09DED060B032453EC102B9FED5F
:1036B000580B51EC100B03F0E3FBCDE906019DED37
:1036C000060B53EC102B51EC100B03F0C7FD41EC33
:1036D000180B53EC182B03F0C1FD41EC190B4E48AD
:1036E0000621B0EE490AF0EE690A784400F030FD98
:1036F00053EC182B51EC100B03F0B0FD41EC180B00
:103700004648B0EE490AF0EE690A0521784400F017
:103710001FFD53EC192B51EC100B03F09FFD41ECF6
:10372000100B51EC180B53EC102B002C0EDA03F09D
:10373000F3FA9DED061B53EC112B03F08FFD9DED6D
:10374000061B53EC112B03F0BDFE35E003F0E4FA49
:103750009DED061B53EC112B03F080FD41EC100B8B
:103760002F48784400EBC40090ED001B51EC100B87
:1037700053EC112B03F0B2FE9DED061B53EC112B05
:1037800003F0ACFE41EC100B2648784400EBC4007B
:1037900090ED001B51EC100B53EC112B03F092FE3B
:1037A00041EC100B002DA2BFBDEC068B02B070BD2A
:1037B00051EC100B03F072FA41EC100B01E7000022
:1037C000000010440000F07F182D4454FB21F93F05
:1037D000182D4454FB21F9BF0000DC3F0000203EBF
:1037E0000000F33F00000000000000000000F03F78
:1037F0000000E63F00000000000000000000004064
:103800000080034000000000000000000000F83FBE
:10381000000000000000F0BF0A450000C0440000A6
:103820004A4400000244000070B56B4E2DED040BBD
:103830002DED028B82B0DDF81CC0DDE905235C4272
:103840002CF000411C4341EAD474049D22F0004056
:10385000B44205D86C422C4340EAD474B4420BD92C
:103860009DED061B9DED040B02B0BDEC028B04B078
:10387000BDE8704000F08ABDACF14054A4F17F6413
:103880001C430BD0022404EAAC7444EAD27405430E
:103890009FED538B9FED542B07D015E09DED040B4E
:1038A00051EC100B00F0A2FE42E0002C11BF012CE5
:1038B0009DED040B02B0BDEC028B04BF04B070BDE3
:1038C000022C38D0032C3BD00B439FED491B9FEDBE
:1038D0004A0B0AD0B14218D1B04209D121F080413F
:1038E00020F08040079105900FE0002A15DA10E0E3
:1038F000434B7B44002C08BF93ED000B0DD0012CF3
:1039000010D0022C17D0032C1AD0B0421DD1002A9F
:1039100003DAB0EE410AF0EE610A02B0BDEC028BB0
:1039200004B070BD93ED000B51EC100B03F0B6F931
:1039300041EC100BF1E7B0EE480AF0EE680AECE754
:10394000B0EE420AF0EE620AE7E7401A00153C28A2
:10395000C8BF8DED000B19DCBCF1000FBEBF10F12C
:103960003C0F9FED290B8DED000B0FDB9DED060B42
:1039700053EC102B9DED040B51EC100B03F080FA6F
:1039800001F04EFC00F032FECDE90001002C08BF32
:103990009DED000BC1D0012C10D0022C9FED1C0B13
:1039A00053EC102B9DED000B51EC100B0DD003F0E0
:1039B00095FD53EC182B03F091FDB9E7019880F0C9
:1039C000004001909DED000BA7E703F087FD53EC4D
:1039D000182B03F077FDABE70000F07F000000003C
:1039E000182D4454FB210940182D4454FB2109C0D3
:1039F000182D4454FB21F9BF182D4454FB21F93FE5
:103A00006243000000000000000000000000000011
:103A1000075C143326A6A13C10B52F499FED2C1B43
:103A20002DED020B84B0059820F000408842D8BFED
:103A30009DED040B2DDD2949884209D1049840B938
:103A40004FF00100FCF7CFFD00F0AAFC06B010BD5E
:103A500005DB9DED040B00F08FFC06B010BD684641
:103A60009DED040B00F0A0F810F0030004BF9DEDE5
:103A7000021B9DED000B0CD001280ED09DED021B0A
:103A80009DED000B022817D0012000F0DDFB06B0F1
:103A900010BD00F0A5FA06B010BD9DED021B9DED16
:103AA000000B012000F0D0FB51EC100B03F0F6F8F6
:103AB00006B041EC100B10BD00F092FA51EC100B67
:103AC00003F0ECF806B041EC100B10BD0000000054
:103AD0000000000000000000FB21E93F0000F07F33
:103AE00010B52F499FED2C1B2DED020B84B00598CE
:103AF00020F000408842DCBF00209DED040B32DD49
:103B00002849884209D1049840B94FF00100FCF7D8
:103B10006AFD00F045FC06B010BD05DB9DED040B11
:103B200000F02AFC06B010BD68469DED040B00F0C5
:103B30003BF810F0030011D0012818D09DED021BB6
:103B40009DED000B02281AD000F04AFA51EC100B40
:103B500003F0A4F806B041EC100B10BD9DED021B64
:103B60009DED000B012000F06FFB06B010BD9DED38
:103B7000021B9DED000B00F033FA06B010BD0120D2
:103B800000F062FB51EC100B03F088F806B041EC3A
:103B9000100B10BD0000000000000000000000003D
:103BA000FB21E93F0000F07F2DE9F14F04462DEDA8
:103BB000020B2DED088B8AB09FEDE70B80ED020B19
:103BC000139EE74826F0004585420ADC9DED120B66
:103BD000002084ED000B0AB0BDEC088B03B0BDE8FB
:103BE000F08FE0489FEDE0AB9FEDE1BBA84247DDE1
:103BF000E14F9FEDE39B9FEDE48B9DED120B53ECAA
:103C00001A2B51EC100B002E1CDD03F067FC41EC6D
:103C1000100BBD4208D053EC1B2B51EC100B03F0E2
:103C20005DFCC4E900010BE053EC192B51EC100BC7
:103C300003F054FC53EC182B03F050FCC4E90001D2
:103C40000120C8E703F068F841EC100BBD4208D032
:103C500053EC1B2B51EC100B03F05EF8C4E9000190
:103C60000BE053EC192B51EC100B03F055F853EC0F
:103C7000182B03F051F8C4E900014FF0FF30AAE718
:103C8000C348A84279DB9DED120B51EC100B01F0FB
:103C9000C7FA41EC180B9FEDC00B53EC102B03F04F
:103CA000DDFA9FEDBF1B53EC112B03F035F803F049
:103CB0003FFA074603F06BFA41EC190B53EC1A2B51
:103CC00003F0CCFA53EC182B03F0FCFB41EC180B7F
:103CD00053EC1B2B51EC190B03F0C0FADFF8C8A210
:103CE00041EC100B4FEA15580125FA4453EC102B08
:103CF00051EC180B03F0F2FB032DC4E900013DD099
:103D0000C1F30A5005EB4511A8EB000011398142BF
:103D100034DA0AEB051BB0EE48AA9BED000BF0EE7F
:103D200068AA53EC102B51EC190B03F097FA41ECF5
:103D30001B0B51EC1A0B53EC1B2B03F0CFFB41EC8C
:103D4000180B51EC1A0B53EC182B03F0C7FB53EC78
:103D50001B2B03F0C3FB9BED020B41EC1A0B53EC46
:103D6000102B51EC190B03F079FA53EC1A2B03F0DA
:103D7000B5FB41EC100B6D1CB8E70EE0002EA8BFA0
:103D80003846BFF628AF94ED000B51EC100B02F053
:103D900085FFC4E9000178421DE7C6F3130040F433
:103DA000801EC6F30A50A0F2F530471100F01F053F
:103DB000C5F12000DDF848B008900020069007907B
:103DC0000520EC467949002D07EB0002794408BF35
:103DD00051F8221009D051F8223001EB8201AB409A
:103DE0004A68089922FA01F11943A1FB0E26A1FBAA
:103DF0000B131A449A4234BF0123002303EB060835
:103E00000CEB8003D3E901A60E448E4234BF01219E
:103E1000002192448A4411B1924502D903E09245AF
:103E200001D2012100E00021C3E901A641444CF880
:103E30002010011EA0F10100C4DC029800F1005026
:103E4000850F0298DDE903678000DDF8148003F038
:103E50009EF941EC1A0B304603F0B0F99FED541B6C
:103E600053EC112B03F0FAF941EC1B0B384603F02D
:103E7000A5F99FED511B53EC112B03F0EFF941EC29
:103E8000180B404603F09AF99FED4D1B53EC112B94
:103E900003F0E4F941EC190B51EC180B53EC192B1E
:103EA00002F03AFF53EC1B2B02F036FF53EC1A2BB7
:103EB00002F032FFCDE90801002008909DED080BCB
:103EC00053EC1A2B51EC100B03F008FB53EC1B2B9B
:103ED00003F004FB53EC182B03F000FB53EC192BFD
:103EE00003F0F0FA9FED381B53EC112B03F0B6F9F9
:103EF0009FED370B41EC180B53EC102B9DED080B8D
:103F000051EC100B03F0AAF953EC182B02F004FF4C
:103F10009FED310B41EC180B53EC102B9DED080B72
:103F200051EC100B03F09AF953EC182B02F0F4FE4D
:103F300041EC100B139810F0004F06D06D4251EC7D
:103F4000100B02F0ABFE41EC100B284684ED000B89
:103F500041E600000000000000000000000000003A
:103F6000FB21E93F7CD9024000004054FB21F93F8E
:103F70003163621A61B4D03DFB21F93F00000000BB
:103F80000000601A61B4D03D7370032E8A19A33B00
:103F9000FB2139410000000083C8C96D305FE43F58
:103FA000000000000000E03F723F0000C03E000043
:103FB000000000000000103E000000000000103C67
:103FC000000000000000103A182D4454FB21F93D78
:103FD0003326A611460B113C00000054FB21F93D8D
:103FE00010B52DED040B2DED088B82B0B0EE419A8B
:103FF000F0EE619A0B9820F000449FED4BABB4F1CA
:10400000795F11DA9DED0A0B51EC100B03F090F87B
:10401000002801BFB0EE4A0AF0EE6A0A02B0BDEC19
:10402000088B04BF04B010BD9DED0A0B53EC102BA0
:1040300051EC100B03F012F941EC180B3C4806212F
:10404000B0EE480AF0EE680A784400F081F853ECCC
:10405000182B51EC100B03F001F99DED0A0B41EC0C
:104060001B0B53EC192B51EC100B03F0F7F841EC40
:10407000190B53EC1B2B51EC180B03F0EFF853EC1E
:10408000192B03F02BFA9FED2C0B41EC190B53EC81
:10409000102B51EC180B03F0E1F841EC100B284801
:1040A000844210DA53EC192B51EC100B03F016FA82
:1040B00053EC1A2B03F006FA41EC100B02B0BDECE6
:1040C000088B04B010BD1F48A042BCBF9FED1E1B53
:1040D0008DED001B06DBA4F5001001900020009080
:1040E0009DED001B51EC100B53EC112B03F0F6F976
:1040F0009DED000B41EC180B53EC102B51EC1A0BFF
:1041000003F0ECF941EC1A0B53EC192B51EC180BA2
:1041100003F0E4F953EC1A2B03F0D4F941EC100B43
:10412000CCE7000000000000000000000000F03FAD
:10413000DC3B000000000000000000000000E03F49
:104140003333D33F0000E93F000000000000D23FBE
:1041500070B504462DED028B4D1E00EBC500B0EE90
:10416000408AF0EE608A90ED000B35F0060017D023
:1041700053EC182B51EC100B03F070F841EC100BC2
:104180006D1E04EBC50090ED001B51EC100B53ECC1
:10419000112B02F0C1FD41EC100B35F00600E7D108
:1041A000022D36D0042D1CD0062D1CBFBDEC028B79
:1041B00070BD53EC182B51EC100B03F04FF894ED3D
:1041C0000A1B53EC112B02F0A7FD53EC182B03F044
:1041D00045F894ED081B53EC112B02F09DFD41ECCA
:1041E000100B53EC182B51EC100B03F037F894ED37
:1041F000061B53EC112B02F08FFD53EC182B03F030
:104200002DF894ED040B53EC102B02F085FD41ECDE
:10421000100B53EC182B51EC100B03F01FF894ED1E
:10422000021B53EC112B02F077FD53EC182B03F01B
:1042300015F894ED001B53EC112B02F06DFDBDEC55
:10424000028B41EC100B70BD31B504462DED040B13
:104250002DED0A8BB0EE41BAF0EE61BA0B989DEDF0
:104260000A0B20F00040B0F1795F0DDA51EC100B31
:10427000FFF745F9042808BF00F0A2F89DED0A0BEE
:10428000BDEC0A8B05B030BD53EC102B51EC100B7C
:1042900002F0E4FF41EC180B9DED0A0B53EC182BD8
:1042A00051EC100B02F0DAFF41EC190B2C48B0EE88
:1042B000480AF0EE680A05217844FFF749FF9FEDB0
:1042C0002ACBB0EE40AAF0EE60AA9CB353EC1C2BB4
:1042D00051EC190B02F0C2FF41EC1C0B53EC1A2BF2
:1042E00051EC190B02F0BAFF9FED210B41EC190BB9
:1042F00053EC102B51EC1B0B02F0B0FF53EC192BBD
:1043000003F0ECF853EC182B02F0A8FF53EC1B2B36
:1043100003F0E4F853EC1C2B03F0E0F89DED0A1BCE
:1043200053EC112B03F0CEF8BDEC0A8B05B041EC39
:10433000100B30BDFFE753EC1A2B51EC180B02F0B9
:104340008DFF53EC1C2B02F0E7FC53EC192B02F011
:1043500085FF9DED0A1B53EC112B02F0DDFCE3E71A
:104360006C3A000000000000495555555555C5BF31
:10437000000000000000E03F10B553EC102B51ECA2
:10438000100B02F0C9FC41EC100B10BD10B553EC42
:10439000112B51EC100B02F0BFFC41EC100B10BDC7
:1043A0009FED050B10B553EC102B51EC100B02F0E8
:1043B00067FD41EC100B10BD000000000000000084
:1043C0009FED050B10B553EC102B51EC100B02F0C8
:1043D00045FF41EC100B10BD000000000000001074
:1043E00090ED000A094A10EE101ADFED090A914219
:1043F00002DD30EE600A06E010EE101A054A914226
:1044000003D330EE200A80ED000A704700003443E9
:104410000000B443000034C310B504460088DFED4B
:10442000270A00EE100A9FED261A2649B8EE400A28
:1044300020EE200A20EE010A84ED150AD4ED140ABC
:1044400030EEC00A10EE100A884202DD30EEC10ADA
:1044500006E010EE100A1C49884203D330EE810AB0
:1044600084ED140A207D012803D11848807E01289C
:104470000BD09FED170A84ED140A84ED150A84ED24
:104480000F0A84ED070A84ED080A04F15000FEF7D4
:1044900043FC84ED070AB4F9020000EE100A04F1AF
:1044A0001C00B8EEC00A84ED080AFEF735FCBDEE2C
:1044B000C00A10EE100A208210BD00000000003972
:1044C0000000B44300003443000034C3180400204B
:1044D0000000000030B504462DED028B81B090F84D
:1044E000D400D4ED360A01EB80009FED3B1A90ED2D
:1044F0000E0AB4F850009FED398A30EE200A00EE23
:10450000900A0D466846F8EE600A60EE810A00EEF9
:10451000C80A8DED000AFFF763FF9DED000AB5EEB6
:10452000C00AF1EE10FA01DCB1EE400A10EE100AFA
:104530002B4988422CDD002084F8E50094F8D41043
:1045400094ED360A05EB8100D0ED0E0A30EE200A1C
:10455000DFED240A30EE200A84ED380A41B101294A
:1045600003D0022904D0032908D190ED0A0A03E000
:1045700090ED0A0AB1EE400A84ED370A94ED380A4C
:10458000194810EE101A81421ADB30EE480A1DE07D
:10459000012084F8E50094F8D41094ED360A05EB78
:1045A00081000029D0ED0E0A30EE200A84ED380A91
:1045B000DBD00129DCD00229D7D00329DED1D7E70F
:1045C00010EE101A814203DD30EE080A84ED380A3D
:1045D00001B0BDEC028B30BD000000390000B443D7
:1045E0000000BE42000034430000B44310B541EC6B
:1045F000100BFEF7ADFF51EC100B10BD2DE9F0478D
:10460000FF4A2DED048B82B01078DFEDFE8ADFF8D3
:10461000F89318B9C9ED038A00215170FB498B7CCE
:1046200013B19FEDFB0A06E04B7C13B19FEDF90A35
:1046300001E09FEDF90AF94B81ED070A01269F7809
:10464000F74BF84C1B789F4203D00E74C4ED028ADE
:104650007DE0EE4BDFF8D0C3DFF8D08393ED021A94
:1046600093ED030A1D7CDCED5A0A31EE000A93EC4F
:10467000021A0A2FE94B93F803C031EE218AD8F8C9
:1046800025303AD2DFE807F0050C0C0C46CDAD46DC
:10469000685F91ED071A61EE200AC4ED020A46E058
:1046A00085B3C4ED028A00BFBCF1000F05D000EE57
:1046B000103AF3EE040A20EE200A84ED010AB5EE6A
:1046C000C00AF1EE10FA01DCB1EE400A10EE100A59
:1046D00002F0EEFF9FEDD61B53EC112B02F0BEFD56
:1046E00041EC190B18EE100A02F0E2FF53EC192B03
:1046F00002F012FB02F0DEFA206002B0BDEC048B87
:10470000BDE8F087FFE791ED071A61EE200AC4EDDE
:10471000020AC9E785B1C4ED028A00BFBCF1000FEF
:1047200005D000EE103AF2EE040A20EE200A84EDE5
:10473000010A84ED008AE0E791ED071A61EE200A94
:10474000C4ED020AEAE79FEDBC0A84ED020AC4ED5B
:10475000008AC4ED018AD0E7ADB1C4ED028A00BF82
:1047600084ED008A84ED010AD4ED020AB34810EE0C
:10477000902ADFEDB31AB3499FEDB31A824209DDE7
:10478000F0EE610A0CE091ED071A61EE200AC4ED2B
:10479000020AE5E710EE902A8A4201D9F0EE410ABA
:1047A00018EE102AC4ED020A824202DDB0EE618AE0
:1047B00005E018EE102A8A4201D9B0EE418A10EEC7
:1047C000102A84ED008A824202DDB0EE610A05E023
:1047D00010EE100A884201D9B0EE410A84ED010AB8
:1047E0008BE79078002877D084ED008A91ED070A56
:1047F00020EE600A10EE100A02F05AFF9FED931BA4
:1048000053EC112B02F03CFB02F054FA00EE100ABC
:10481000FEEE000A84ED010A20EE200A84ED020A71
:104820006BE74D4699F814309FED8A1ADFED8A1A2E
:104830008A4F9FED8B9ADFF82C924FF00208DFED44
:104840008A9A012B18D095F8FC30012B4FD095F89F
:10485000E431012B7CD095F8CC32012BC0D19246AB
:10486000694AB2F8B832B2F8C0229A1A012870D058
:10487000564602286ED09FE09246634A13881289FA
:104880009A1A012803D05646022816D094E000EE6A
:10489000102A6846B8EEC00A20EE010A20EE210A6E
:1048A0008DED000AFFF79CFD28883BE0B1EE400A41
:1048B00047E000BF8AF8016016E000EE102A684663
:1048C000B8EEC00A20EE010A20EE210A8DED000AA2
:1048D000FFF786FD28884DE070E000BFB1EE400A8A
:1048E00057E000BF86F80180C4ED008A05E79246D4
:1048F000454A32F8E83F12899A1A012803D05646F1
:10490000022828D058E000EE102A6846B8EEC00A07
:1049100020EE010A20EE210A8DED000AFFF760FD6E
:1049200035F8E80F288195ED030ADDED000A30EE39
:10493000200A85ED030A00BFB5EEC00AF1EE10FAB9
:10494000B4DD10EE100AB842B4DC84ED009AD4E66F
:1049500026E0A8E0C1E000EE102A6846B8EEC00AE2
:1049600020EE010A20EE210A8DED000AFFF738FD46
:1049700035F8E80F288195ED030ADDED000A30EEE9
:10498000200A85ED030A00BFB5EEC00AF1EE10FA69
:10499000A4DD10EE100A4845A4DBC4ED009AACE695
:1049A0009246194AB2F8D031B2F8D8219A1A0128A1
:1049B0000DD0564602285CD0002897D191ED071AF9
:1049C00061EE200AC4ED020A84ED008A06E700EEDB
:1049D000102A6846B8EEC00A20EE010A20EE210A2D
:1049E0008DED000AFFF7FCFCB5F8D001A5F8D80161
:1049F00095ED770ADDED000A30EE200A36E0000082
:104A000000000020000000002C0000209404002082
:104A100000002042000020430000C8426007002040
:104A2000050000206C070020B40400203C04002096
:104A30009A9999999999A93F00409C450000FA4498
:104A40000000FA440000FAC40000FAC439B4C87681
:104A5000BE9FF63F000000390000B44300A08C4523
:104A600000007AC40000C84200007A4485ED770A4D
:104A700062E700EE102A6846B8EEC00A20EE010A8E
:104A800020EE210A8DED000AFFF7AAFCB5F8D0014F
:104A9000A5F8D80195ED770ADDED000A30EE200A81
:104AA00085ED770A70E700EE102A6846B8EEC00A76
:104AB00020EE010A20EE210A8DED000AFFF790FC9E
:104AC000B5F8B802A5F8C00295EDB10ADDED000A0F
:104AD00030EE200A85EDB10A2EE700EE102A684676
:104AE000B8EEC00A20EE010A20EE210A8DED000A80
:104AF000FFF776FCB5F8B802A5F8C00295EDB10A4B
:104B0000DDED000A30EE200A85EDB10A3CE7000039
:104B100010B504462DED028B90ED030AB5EEC00AE8
:104B2000F1EE10FA01DCB1EE400A10EE100A254950
:104B3000884220DD206802F0BBFD41EC180B606864
:104B400002F0B6FD41EC100BB0EE481AF0EE681A18
:104B5000FEF76AFE9FED1C1B51EC100B53EC112B62
:104B600002F08EF99FED1A1B53EC112B02F076FB2D
:104B700002F0A0F8206104F11000FFF731FC94ED81
:104B8000020ADFED150A9FED151ADFED151A9FEDEC
:104B9000152AB5EEC00AF1EE10FA05DD1834C4ECA2
:104BA000040ABDEC028B10BDB5EEC00AF1EE10FA9E
:104BB000F7D284ED062AC4ED071A84ED081AC4ED75
:104BC000090AEEE70000A0406E861BF0F9210940BB
:104BD00000000000008066400000344200000743EF
:104BE000000034C2000007C370B50D46044690F8BB
:104BF000D410284600F00EF894F8D410284600F09F
:104C0000B3F8284601F098FB29462046BDE87040DD
:104C1000FFF760BC70B500EB81052DED068B0446F7
:104C200095ED060AD0ED040A30EE600A9FED481AB1
:104C3000C0EE010A9FED470A60EE808A18EE900AE6
:104C400002F036FD41EC100BFEF74AFFB0EE409A41
:104C5000F0EE609A606902F02BFD53EC192B02F024
:104C6000FDFA02F027F808EE100AE06802F020FDD5
:104C700041EC190B18EE900A02F01AFD41EC100BF2
:104C8000FEF7CAFEB0EE40AAF0EE60AA606902F03C
:104C90000FFD53EC1A2B02F0E1FA53EC192B02F042
:104CA0003BF802F007F800EE100AB5EEC08AF1EE0C
:104CB00010FA02DDF0EE480A01E0F1EE480A10EECB
:104CC000900A4FF07E5188420DDCB5EEC00AF1EE3D
:104CD00010FA02DDF0EE400A01E0F1EE400A10EEBB
:104CE000900A88422BDD10EE100A02F0E1FC41EC44
:104CF000190B18EE100A02F0DBFC41EC100BB0EEC1
:104D0000491AF0EE691AFEF78FFD9FED131B51EC67
:104D1000100B53EC112B02F0A1FA9FED111B53EC79
:104D2000112B02F0ADF841EC180B206902F0C0FC29
:104D300053EC182B01F0F0FF01F0BCFFA86305F164
:104D40003800BDEC068BBDE87040FFF749BB0000A2
:104D500000003443D00F494000000000008066404E
:104D600000000000FA21094070B505462DED068BC4
:104D70009FED4CABDFED4D8A9FED4D8A00EB81043A
:104D800090ED040AD4ED0E0A70EEC00A80EEA80A77
:104D900020EE080A10EE100A02F08AFC41EC100B1B
:104DA000FEF73AFE53EC1A2B51EC100B02F054FBB9
:104DB00094ED0E0AD5ED040A70EE600A80EEA80AA2
:104DC00020EE080A10EE100A06D202F071FC41EC47
:104DD000100BFEF721FE0BE002F06AFC41EC100B19
:104DE000FEF71AFE51EC100B01F058FF41EC100BCE
:104DF000E868B0EE409AF0EE609A02F059FC53EC8D
:104E0000192B02F02BFA94ED060AD4ED0E0A41ECB0
:104E1000190B70EE600A80EEA80A20EE080A10EE68
:104E2000100A02F045FC41EC100BFEF7F5FD53ECC7
:104E30001A2B51EC100B02F00FFB94ED060AD4ED87
:104E40000E0A30EE600AC0EE280A20EE880A10EE44
:104E5000100A06D202F02CFC41EC100BFEF7DCFD30
:104E60000BE002F025FC41EC100BFEF7D5FD51ECF8
:104E7000100B01F013FF41EC100B6869B0EE408A93
:104E8000F0EE608A02F014FC53EC182B02F0E6F905
:104E900053EC192B01F040FF01F00CFFA062BDECB8
:104EA000068B70BD000000000000000000003443CD
:104EB000D00F4940D0ED000AF5EEC00AF1EE10FA2D
:104EC00002DDB0EE601A01E0B1EE601A90ED010A69
:104ED000B5EEC00AF1EE10FA02DDF0EE401A01E084
:104EE000F1EE401AB4EEE11AF1EE10FA0ADDF5EE39
:104EF000C00AF1EE10FA02DDB0EE600A09E0B1EE90
:104F0000600A06E0B5EEC00AF1EE10FA01DCB1EE7F
:104F1000400A10EE101A0E4A80ED030A914202DD9B
:104F20009FED0C0A06E0B5EEC00AF1EE10FA01D2D0
:104F30009FED090A80ED030A90ED020AB5EEC00A62
:104F4000F1EE10FA01DCB1EE400A80ED050A70477F
:104F50000000FA450000FA45000000002DE9F0418C
:104F60004FF40070FCF72CFA384C394EDFF8E4802F
:104F7000A07E012813D100254FEA080756F8250026
:104F8000017E012907D1C18AA1F20121032902D89A
:104F90007A68314990476D1CADB2082DEED30223DB
:104FA0002D4A2E492E48FBF7DDFD0028F7D12A4D6A
:104FB0000027093D1020C5F80970C5F80D70FCF7F1
:104FC000FFF9284828494078497840EA41012248B9
:104FD00001702649097C4170287848B12F7002235E
:104FE0001D4A1E492248FBF7BDFD0028F7D101E00C
:104FF00001202870C5F80970C5F80D7040F2FF1047
:10500000FCF7DEF9A07E012812D1002456F8240016
:10501000017E012908D1C18AA1F20521032903D803
:10502000D8F804200C499047641CA4B2082CEDD396
:105030000223094A09490A48FBF794FD0028F7D1E1
:1050400045F8097F6F60BDE8F0810000180400207A
:10505000CC030020EC030020390600204808002083
:10506000740F00206007002000000020940400203E
:105070004C0F00202DE9F041224801F0E1F82148D1
:10508000E830074601F0DCF81F48064601F0D8F882
:105090001D48E830054601F0D3F81C4C1948216939
:1050A0005030884718482169983888471648216940
:1050B00050308847216916488847E1681148884779
:1050C000E16838468847E16830468847E168284605
:1050D00088470C48002190F8E420012A00D1018281
:1050E00090F8CC21012A01D1A0F8F81090F8B43240
:1050F000012B01D1A0F8E011012A01D1A0F8F8108C
:10510000BDE8F0812C000020FC010020EC03002011
:105110003403002030B5284890F84800002845D1D5
:10512000264940F6B8300024CB6983423CD8244855
:1051300041F6420590ED360A80ED380A90ED700A8E
:1051400080ED720A90EDAA0A80EDAC0A90EDE40AB7
:1051500080EDE60AB0F85020AA4201D3521B00E0CD
:10516000AA1A732A23DAB0F8382141F64A55AA421E
:1051700001D3521B00E0AA1A732A18DAB0F82022D1
:1051800041F6BD45AA4201D3521B00E0AA1A732A78
:105190000DDAB0F8082340F2B725A2F2B720AA42F0
:1051A00000D24042732802DA0120CC6130BD5B1C82
:1051B0000020CB6130BD00006C07002008000020FB
:1051C0002C00002090F87010491CCAB280F87020A2
:1051D00090F871108A4203D980F87010002104E021
:1051E00090F86F10002902D1012180F86F107047EC
:1051F00010B50068016841F4002101600148FEF724
:105200009BF810BDDA09002010B50068016821F490
:10521000002101600148FEF78FF810BDF20900205F
:1052200082B0CDE9000121F0004001909DED000B1E
:1052300002B051EC100B704710B5114801F014F892
:105240000F48FFF737FE0E48FFF762FC0C4890F856
:10525000490088B90A490B48FFF7C6FC09480849C4
:10526000E830FFF7C1FC06490748FFF7BDFC0648D8
:105270000349E830FFF7B8FCBDE8104000F00CBB74
:105280006C0700202C000020FC01002010B500F06D
:1052900013F806480649026A904701F0D1F805481C
:1052A000416CBDE81040223008470000180400207F
:1052B000040400203C04002070B5134C1348012561
:1052C0002178807E01290AD001280AD1FFF722FF28
:1052D0000F49002881F8480000D0657070BD012892
:1052E000FCD00D489FED0B0A0C4980ED7B0A80ED48
:1052F000B50A80ED070A80ED410AA57000206070B4
:1053000008704D7070BD0000600700201804002078
:105310006C070020000000002C0000200500002089
:1053200070B50D48FCF730FB0C48C16988470C4844
:10533000816C223088470B48FFF744FF0A4D0B4E23
:10534000002400BFB16855F824008847641CA4B24B
:10535000082CF7D370BD00009C0F0020180400201B
:105360003C0400204C060020CC030020EC0300206D
:105370002DE9F041274E0120FCF722F8A6F1440563
:10538000A5F1080495F86F00012804D1B5F837009D
:10539000010A21706070A88D010AA170E070B5F853
:1053A0003D00010A21716071288D010AA171E0712F
:1053B000184A01234C3A18491848FBF7D3FB002838
:1053C000F6D1144F80464E3F0220C7F80280C7F83E
:1053D0000680FBF7F5FF3068000E20703068000C87
:1053E00060703088000AA07030782071688D010AE2
:1053F0006171A071074A01234C3A07490748FBF73E
:10540000B1FB0028F6D147F8028FC7F80480BDE849
:10541000F081000090060020480800204C0F00207A
:1054200070B50D46044605212846FEF753F80128BD
:1054300026D12868206028792071B4F80100114E27
:10544000093081B231802078A52813D12846FEF793
:1054500023F801280CD1B5F80500012808D1B4F8CB
:105460000120E91D601DFAF7F6FF002084F87000A6
:10547000FFF77EFF3088295CA52901D10544D2E7DA
:1054800070BD00004206002010B50C4600F060F927
:1054900061780C4804290CD2DFE801F0020B050505
:1054A0009FED090A03E0417C21B19FED080A80EDE0
:1054B000020A10BD817C11B19FED050AF7E79FED4F
:1054C000050AF4E7940400200000000000C0DAC5DB
:1054D0000000FAC400409CC510B50C4600F038F935
:1054E0006078022816D2DFE800F015010A48C07C77
:1054F00000280FD0012080F31388BFF34F8F074897
:105500000168074A01F4E06111430160BFF34F8F66
:1055100000BFFDE710BD0000940400200CED00E08A
:105520000400FA0510B50C4600F012F9617806483F
:10553000032907D2DFE801F002060400002100E0A1
:105540000121817410BD00009404002010B50C46A8
:1055500000F0FEF861780C4804290CD2DFE801F075
:10556000020B05059FED090A03E0417C21B19FED87
:10557000080A80ED030A10BD817C11B19FED050A78
:10558000F7E79FED050AF4E794040020000000000F
:1055900000C0DA450000FA4400409C4510B50C46B6
:1055A00000F0D6F86078022807D2DFE800F00601A4
:1055B0000348017C11B10021017410BD0121FBE7FA
:1055C0009404002010B50C4600F0C2F86078022860
:1055D0001AD2DFE800F019010E49487C002813D1E7
:1055E000887C002810D10C488278012A05D0032A33
:1055F00003D0042A01D0072A06D1C2782AB100229A
:10560000C27022B10020087410BD0122F8E7012009
:10561000F9E70000940400206007002010B50C4654
:1056200000F096F861780C4804290CD2DFE801F00C
:10563000020B05059FED090A03E0417C21B19FEDB6
:10564000080A80ED010A10BD817C11B19FED050AA9
:10565000F7E79FED050AF4E794040020000000003E
:1056600000C0DAC50000FAC400409CC510B50C4665
:1056700000F06EF861780648032907D2DFE801F0F0
:1056800002060400002100E00121417410BD000069
:105690009404002010B50C4600F05AF861780C48CC
:1056A00004290CD2DFE801F0020B05059FED090A81
:1056B00003E0417C21B19FED080A80ED000A10BD96
:1056C000817C11B19FED050AF7E79FED050AF4E72C
:1056D000940400200000000000C0DA450000FA44F5
:1056E00000409C4530B50D46044601462846FFF76C
:1056F000D1FF04F114012846FFF790FF04F12801BF
:105700002846FFF7C1FE04F13C012846FFF71EFFC3
:1057100004F150012846FFF7A9FF04F1640128466F
:10572000FFF700FF04F1A0012846FFF74BFF04F14B
:10573000C8012846FFF732FF04F596712846FFF7A7
:10574000CBFE04F5AA712846BDE8304000F028BA27
:105750000869401C08610B780A7B7BB132B14A684A
:10576000801A8A68904206D2032005E001224A701E
:1057700048600A7370470220487070470020002A72
:10578000FAD004224A70087370470000F0B52A4D21
:1057900000231C466A68521C6A602F88274A01262B
:1057A000B1F812C02CFA03FC5FEACC7C06D052F8A8
:1057B00023C00CF1010C42F823C002E042F8234060
:1057C000A446BC4503EB830C02D900F82C6001E031
:1057D00000F82C405B1CDBB2102BE1D318490B7C8A
:1057E000012B07D014642B88176C9F4206D980F8D0
:1057F000406105E0136C5B1C1364F4E780F84041E2
:105800004D7C012D06D05464526C9A4206D980F822
:10581000546105E0556C6D1C5564F5E780F8544102
:10582000B1F90A0000EE100A0348B8EEC00A2830A9
:1058300080ED5A0AF0BD00008C040020B80700205B
:1058400018040020FCF7AEF8FDF710FBFDF772F925
:10585000FDF7E4F8FDF79AF8FDF7BCF8FDF7DAF983
:10586000FDF7F4F9FDF70EFAFDF7B8F9FDF728FAA0
:10587000FAF742FFFDF742FDFDF7EAFDFDF7AEFD49
:10588000FDF702F900F0A9F9FEE70146002084299E
:1058900000D0C81C704700002DE9F0418D4C8E4DA2
:1058A0002DED028B294694ED030A84ED040AE86885
:1058B000E06095ED020A4E69B5EEC00AF1EE10FA0D
:1058C0001ADD01F0F5FE41EC180B304601F0F0FE58
:1058D00041EC100BB0EE481AF0EE681AFDF7A4FF89
:1058E000B0EE408AF0EE608A286901F0E1FE53ECE8
:1058F000182B01F011FA19E001F0DAFE41EC180B57
:10590000304601F0D5FE41EC100BB0EE481AF0EE37
:10591000681AFDF789FFB0EE408AF0EE608A2869C8
:1059200001F0C6FE53EC182B01F0D8FD01F0C2F9CE
:10593000206268482030FEF753FD94ED040AD4ED50
:10594000030A664E012330EE600A0022644810EE1E
:10595000101AB14295F8491004DB21B9A169491C1C
:10596000A16100E0C9B1A169B1F5967F51D9A261E9
:105970009FED5C0A626180ED370A80ED710A80ED6F
:10598000AB0A80EDE50A584E216AB14207DA574E5C
:10599000B14204D285F849308EE0A26141E0524E16
:1059A000F6438F19524EB74201D2022106E0514F01
:1059B000DFF844C10F44674503D2032185F849103D
:1059C0002FE04E4F01EB070E4D4FBE4501D2042193
:1059D000F4E7DFF830E1714503D8DFF82CE17145D9
:1059E00001DD0521EAE7DFF824E18E44BE4501D25E
:1059F0000621E3E7464F0F44674501D2072105E042
:105A00003A4FFF433944B14203D2082185F8491087
:105A100052E095F8491001294ED007294CD00829A9
:105A20004AD080F8E42000BF95F84910012946D0FB
:105A3000032944D0022942D080F8CC21052941D045
:105A400007293FD006293DD080F8B42203293DD054
:105A500004293BD080F89C23B0F9026041F26E73B8
:105A600006F6B7369E421CD8B0F9EA6006F6B7369D
:105A70009E4216D8B0F9D26106F6B7369E4210D8CB
:105A8000B0F9BA6206F6B7369E420AD863695B1C63
:105A9000636180F8E42080F8CC2180F8B42280F89B
:105AA0009C236069C82803D9002901D085F84920C2
:105AB000BDEC028BBDE8F08180F8E430B4E780F8FB
:105AC000CC31BBE780F8B4320529BFD180F89C33D4
:105AD000C2E70000080000206C0700200000A04181
