:020000040800F2
:10000000205900202903000825340008A12C0008ED
:10001000DD330008AD0A0008013D000800000000C3
:10002000000000000000000000000000690200085D
:10003000BF0E000800000000C5020008A537000838
:100040004303000843030008430300084303000878
:100050004303000843030008430300084303000868
:10006000430300084303000843030008410B000852
:10007000430300084D0B000843030008590B000818
:10008000650B00084303000843030008430300080E
:10009000B10A0008430300084303000843030008B3
:1000A0004303000843030008430300084303000818
:1000B0007D38000843030008430300084303000899
:1000C00043030008430300084303000843030008F8
:1000D00043030008D13B0008E13B0008430300084C
:1000E00043030008430300084303000843030008D8
:1000F000430300084303000843030008710B000892
:1001000043030008430300084303000843030008B7
:1001100081390008993900084303000843030008A7
:1001200043030008430300087D0B00084303000855
:100130004303000843030008430300084303000887
:10014000BD0A0008430300084303000843030008F6
:100150004303000843030008430300084303000867
:100160004303000843030008430300084303000857
:100170004303000843030008430300080000000095
:10018000430300084303000800F002F800F05CF8A5
:100190000AA090E8000C82448344AAF10107DA45E2
:1001A00001D100F051F8AFF2090EBAE80F0013F0D8
:1001B000010F18BFFB1A43F0010318478095000098
:1001C000A09500000A444FF0000C10F8013B13F01A
:1001D000070408BF10F8014B1D1108BF10F8015BA0
:1001E000641E05D010F8016B641E01F8016BF9D193
:1001F00013F0080F1EBF10F8014BAD1C0C1B09D1EA
:100200006D1E58BF01F801CBFAD505E014F8016B5B
:1002100001F8016B6D1EF9D59142D6D370470000ED
:100220000023002400250026103A28BF78C1FBD8FF
:10023000520728BF30C148BF0B6070471FB509F097
:100240001EF91FBD10B510BD00F097F91146FFF75C
:10025000F5FF07F0B7F900F0B5F903B4FFF7F2FFC7
:1002600003BC00F0B9F900002C4B19680868B0E82D
:10027000F04F80F30988BFF36F8F4FF0000080F3D9
:10028000118870470000000008480068006880F38B
:1002900008884FF0000080F3148862B661B6BFF39F
:1002A0004F8FBFF36F8F00DF00BF00BF08ED00E08E
:1002B000DFF80C00016841F470010160704700BF75
:1002C00088ED00E0EFF30980BFF36F8F134B1A68DE
:1002D0001EF0100F08BF20ED108A20E9F04F1060CB
:1002E00009B44FF0500080F31188BFF34F8FBFF374
:1002F0006F8F08F08DF94FF0000080F3118809BC72
:1003000019680868B0E8F04F1EF0100F08BFB0EC95
:10031000108A80F30988BFF36F8F704700090020AF
:10032000EFF30580704700000948804709480047FF
:10033000FEE7FEE7FEE7FEE7FEE7FEE7FEE7FEE795
:10034000FEE7FEE704480549054A064B70470000F2
:100350006D38000889010008205300202059002032
:10036000205500202055002053EA020C00F069803F
:100370002DE9F04B4FF00006002B1FBFB3FA83F5B9
:1003800003FA05F424FA05F65E4012BF1643B2FAEA
:1003900082F502FA05F4C5F120051EBF22FA05FC1C
:1003A00044EA0C04203556EA044C4FEA144418BFC2
:1003B000641C4FF000084FF00009904271EB030CF1
:1003C00039D3002919BFB1FA81F701FA07F6B0FA5B
:1003D00080F700FA07F6C7F120071EBF20FA07FCD6
:1003E00046EA0C062037B6FBF4FCA7EB0507103FE6
:1003F00007F01F0BCBF120060CFA0BFB2CFA06F6CC
:1004000044BFB3460026202FA4BF5E464FF0000B2A
:100410005BEA060C08BF4FF0010B19EB0B09ABFBB5
:10042000027C48EB0608C01B06FB02CC0BFB03CC8E
:1004300071EB0C01C1E70B46024641464846BDE858
:10044000F08B13B54FF000004FF00001AFF30080C8
:10045000BDE81C40704710B5203AC0F00B80B1E8F1
:100460001850203AA0E81850B1E81850A0E81850E9
:10047000BFF4F5AF5FEA027C24BFB1E81850A0E8F2
:10048000185044BF18C918C0BDE810405FEA827C0C
:1004900024BF51F8043B40F8043B08BF7047D20723
:1004A00028BF31F8023B48BF11F8012B28BF20F8C4
:1004B000023B48BF00F8012B70474FF000020429AF
:1004C000C0F0128010F0030C00F01B80CCF1040C83
:1004D000BCF1020F18BF00F8012BA8BF20F8022BB7
:1004E000A1EB0C0100F00DB85FEAC17C24BF00F85D
:1004F000012B00F8012B48BF00F8012B70474FF08B
:10050000000200B5134694469646203922BFA0E863
:100510000C50A0E80C50B1F12001BFF4F7AF09076F
:1005200028BFA0E80C5048BF0CC05DF804EB890060
:1005300028BF40F8042B08BF704748BF20F8022BA3
:1005400011F0804F18BF00F8012B704770477047BB
:10055000704710B500F00CF8006810BD10B50446E7
:1005600000F006F8046010BD00487047BC5200203F
:1005700000487047BC52002070477546FFF7F4FFF3
:10058000AE4605006946534620F00700854618B080
:1005900020B5FFF7D7FEBDE820404FF000064FF032
:1005A00000074FF000084FF0000B21F00701AC46A8
:1005B000ACE8C009ACE8C009ACE8C009ACE8C009C7
:1005C0008D46704710B50446AFF300802046BDE865
:1005D0001040FFF742BE000001491820ABBEFEE705
:1005E00026000200064D074C2878012803D1207907
:1005F00008B107F021F8012007F0BAF9F4E700008C
:1006000000000020600700202DE9F04116462DED86
:100610000A8B0F468046B3F90030DDE9131000EE77
:10062000103ADDE91152F8EEC00AFE4CDDF840C088
:10063000C4ED0E0ABCF9003000EE103AB8EEC00A64
:1006400084ED0F0AB5F90030032593FBF5F31BB2D7
:1006500003EB430300EE103AB8EEC00A84ED100A33
:10066000B2F9002000EE102AB8EEC01A84ED111A7B
:10067000B1F9001000EE101AB8EEC00A84ED120AAB
:10068000B0F9000021EE000A01EE900AF8EEE11A3E
:10069000C4ED131A20EE210AB5EEC00AF1EE10FAED
:1006A0007DD0E14D297B9FEDE18AFDEEE00AB0EEC1
:1006B000480A10EE900A00B206F056FF84ED0E0ACA
:1006C000D4ED0F0A297BB0EE480AFDEEE00A10EEE9
:1006D000900A00B206F048FF84ED0F0AD4ED100A2C
:1006E000297BB0EE480AFDEEE00A10EE900A00B257
:1006F00006F03AFF94ED0E1ADFEDCD0A21EE201A36
:1007000020EE200A84ED0E1A94ED0F1A21EE201A25
:1007100084ED0F1A84ED100AD4ED110A297BB0EE96
:10072000000AFDEEE00A10EE900A00B206F030FF7B
:1007300084ED110AD4ED120A297BB0EE000AFDEE19
:10074000E00A10EE900A00B206F022FF84ED120AD1
:10075000D4ED130A297BB0EE000AFDEEE00A10EE9C
:10076000900A00B206F014FFF0EE400AC4ED130A3E
:1007700094ED110A94ED121A20EE000A01EE010A1E
:1007800000EEA00A06F054FB84ED070AD4ED110A2E
:1007900060EE802AC4ED112AD4ED120A00E05CE17B
:1007A00060EE804AB0EE008AC4ED124AD4ED130A1E
:1007B00020EE803A84ED133A94ED040AD4ED060A53
:1007C000D4ED031A94ED051A20EE202A01EEC12A79
:1007D00022EE084A21EE802A84ED084A01EE202A02
:1007E00022EE085A21EEA12A84ED095A00EE402A91
:1007F00001EE412A00EEA02A84ED0A2A64EE823A34
:1008000043EE453A23EE043A02EEC23A62EE852AFE
:10081000C4ED0B3A44EEC42A84ED0C3AC4ED0D2A23
:1008200094ED142A94ED015A03EE852A84ED142ADE
:1008300094ED154A03EE054A84ED154AD4ED164AA7
:1008400042EE854AC4ED164AD4ED0E5A94ED005A94
:1008500045EE235A35EE822A84ED0E2AD4ED0F3A66
:1008600045EE033A33EE843A20EE424A84ED0F3AE5
:10087000D4ED103A01EE434A61EE835A45EE223A36
:10088000B0EE615A73EEA42A61EE824AC4ED102ADA
:10089000C4ED171A41EE224A84ED180A00EEE24A2E
:1008A00084ED191AC4ED1A0AD4ED023A40EEC34A97
:1008B00040EE625A04EE235AB0EE404A04EEA34AD8
:1008C00040EE825A84ED035A84ED044A61EEA21A86
:1008D000F0EE414A45EEA34A40EE031A25EE050A22
:1008E000C4ED054A04EE040A41EE421A04EEA40ADD
:1008F00041EEA30AC4ED060A00EEA00A06F098FA3B
:1009000084ED070AD4ED030A20EE80BA84ED03BA21
:10091000D4ED040A60EE808AC4ED048AD4ED050AA1
:1009200020EE809A84ED059AD4ED060A60EE809A56
:100930002BEE0B0AC4ED069A08EEE80A09EE490A06
:1009400009EEA90A10EE100A08F028FD29EE080A9F
:100950006BEE080A41EC1A0B20EE290A00EEA80AF9
:1009600010EE100A08F01AFD41EC100BB0EE4A1A16
:10097000F0EE6A1A03F00CFD9FED2EBB51EC100B4C
:1009800053EC1B2B08F04AFA08F016F8386094ED87
:10099000040AD4ED060A94ED051A20EE080A20EEAA
:1009A000200AD4ED030A60EE880A00EEC10A10EEB8
:1009B000100A08F0F3FC41EC100B03F0CDF99FEDA9
:1009C0001F1B51EC100B53EC112B08F027FA07F00A
:1009D000F3FFC8F8000094ED03CAD4ED048AD4ED07
:1009E00005AA2CEE0C0A94ED06AA08EEA80A0AEE57
:1009F000EA0A0AEE4A0A10EE100A08F0CFFC28EEC6
:100A0000AA0A41EC190B0CEE0A0A20EE080A10EEB5
:100A1000100A08F0C3FC41EC100BB0EE491AF0EEDE
:100A2000691A0FE054080020D80E00200000FA4494
:100A3000728A8E3C0000006066A64C400000006098
:100A400066A64CC003F0A4FC53EC1B2B51EC100B1E
:100A500008F0E4F907F0B0FF30600020BDEC0A8B2D
:100A6000BDE8F0812DE9FE4F1546DDE90C9A0E46F2
:100A700007460C221C466946104602F05FFABDF894
:100A80000080BDF802C0BDF80430BDF80620BDF8F6
:100A90000810BDF80A00A4F80080A9F800C0AAF860
:100AA00000303A8031802880BDE8FE8FFEE70000EC
:100AB000014800F0B7BB000094110020014800F08D
:100AC000B1BB0000BC11002010B500F017FB00F016
:100AD0001BFE0221074800F013FA064800F020FE32
:100AE0000221054800F00CFABDE81040024800F071
:100AF00017BE000094110020BC1100200A4E0B4CC0
:100B00000B4D3078012801D105F0A0FD04F014F957
:100B100094ED030A85ED010AD4F80C01807968721E
:100B2000012006F025FFECE7000000203C0000203B
:100B30006809002005F0B0FD012006F019FFF9E773
:100B4000014800F087BE000004140020014800F0B6
:100B500081BE000044130020014800F07BBE00006D
:100B6000A4130020014800F075BE000024150020E9
:100B7000014800F06FBE000064140020014800F03E
:100B800069BE0000C41400202DE9F04F85680024E0
:100B9000099E802D18D0894DC563894D456490F814
:100BA0003450012D15D0012580F8345090F835507F
:100BB000012D10D0002180F834100224002180F88B
:100BC00034102046BDE8F08F4FF48071416501205C
:100BD000F8E70220F6E7022580F835500025456544
:100BE00005682F6847F480272F6005682B6103682C
:100BF0005E608368402B03682AD099600168CA60F0
:100C0000714D704E704FDFF8BC81DFF8B891DFF89E
:100C1000B8A1DFF8B4B1EA14DFF8A8E1016818362A
:100C200030379302A9F148090AF1600A0BF1180B59
:100C3000AEF1300E4FF0006C41452DD9A94205D0E0
:100C4000494503D0514501D0B14205D1202220E0D1
:100C50009A600268D160D3E759451AD0714518D01F
:100C6000594D7835A94214D0564D3035A94210D08F
:100C7000B9420BD0534A183A914207D0524A9032A7
:100C8000914203D04F4A4832914201D11A4600E0C6
:100C900062464C494C392EE0DFF82C8108F1A80857
:100CA00041452AD9A94205D0494503D0514501D033
:100CB000B14201D120221CE059451AD0714518D00B
:100CC000414D7835A94214D03E4D3035A94210D05F
:100CD000B9420BD03B4A183A914207D03A4A903277
:100CE000914203D0374A4832914201D11A4600E07E
:100CF0006246344950390A605AE0DFF8CC8008F186
:100D0000480841452AD9A94205D0494503D0514553
:100D100001D0B14201D120221CE059451AD07145C1
:100D200018D0294D7835A94214D0264D3035A94226
:100D300010D0B9420BD0234A183A914207D0224A28
:100D40009032914203D01F4A4832914201D11A4653
:100D500000E062461C491039CA6029E0A94205D06A
:100D6000494503D0514501D0B14201D120221CE0B8
:100D700059451AD0714518D0134D7835A94214D071
:100D8000104D3035A94210D0B9420BD00D4A183A57
:100D9000914207D00C4A9032914203D0094A48321E
:100DA000914201D11A4600E06246074910398A6033
:100DB00001680A6842F001020A60FFE6F952000881
:100DC0001153000858640240106002400168182363
:100DD000CAB2103AB2FBF3F2054B6FF30901032AD2
:100DE0009B5CC36500D9091D8165084670470000FA
:100DF000AC95000810B5014600208B698A6A4FF057
:100E0000C07453B1B3F5005F15D072B1012A0CD094
:100E1000022A0AD0032A09D104E01AB1012A06D015
:100E2000022A03D1C96AC90100D5012010BDC96ACF
:100E3000A142FAD010BD002AF7D0012AF2D0022A2E
:100E4000F3D0032AF3D010BD70B590F834500024CD
:100E5000012D0CD0012580F8345090F83560002524
:100E6000012E06D080F834500224204670BD0220A6
:100E700070BD022680F83560456505682E6826F449
:100E800080262E6005686B608368402B036808D05D
:100E900099600168CA600068016841F00101016061
:100EA000E3E79A600268D160F5E701680A68D20654
:100EB00004D5C968C90601D507F004BA7047704760
:100EC00072B6FEE70B4E0C4C0C4D3078012801D168
:100ED00005F0F2FB05F072FD94ED030A012085EDAB
:100EE000020A94ED450AB1EE400A85ED030A06F0C8
:100EF0003FFDEAE70000002084030020980900205D
:100F000090F82020012A07D0022A05D0416A41F436
:100F10008021416201207047006842690A434261B2
:100F200000207047F0B590F820500468A468012DA7
:100F300005D0022D03D0416A41F4802153E014F022
:100F4000406F01D1E5004BD5C4F30164022C03D9F5
:100F5000416A41F4000146E00125A5401D608D680D
:100F60004FF4C0739DB1CE6835434E6845EAC6055F
:100F7000066803EB0417F5514FF4C275076805EBDB
:100F800004150E697E51097D012905D009E00E88FE
:100F9000CD6845EA4655EBE701684E5946F4807640
:100FA0004E511179D2F805504FF4C67641EA052525
:100FB000016806EB04168D511178D2F801204FF428
:100FC000C47541EA0221026805EB0415515100681D
:100FD00003EB0411425842F0010242500020F0BDE0
:100FE000416A41F4001141620120F0BD10B590F852
:100FF0002020012A07D0022A05D0416A41F480212D
:101000004162012010BD3B48D0F8002242F00102AD
:10101000C0F80022D0F8002222F47C52C0F800224E
:10102000D0F800224B6A42EA0322C0F800220A7D6F
:1010300002F01F0301229A40D0F81C329343C0F8FB
:101040001C32CB69B3B9D0F80C329343C0F80C32E0
:101050008C894B6864F31F434C6900EBC404C4F8EB
:1010600040320C890B6864F31F434C6900EBC404E5
:10107000C4F84432CB69012B16D1D0F80C3213439B
:10108000C0F80C320C884B6864F31F434C6900EBCA
:10109000C404C4F840320C89CB6864F31F434C6924
:1010A00000EBC404C4F844328B69002BD0F804323E
:1010B0000ED01343C0F804320B69002BD0F8143261
:1010C00008D01343C0F81432096A012904D008E09B
:1010D0009343EFE79343F5E7D0F81C121143C0F8B0
:1010E0001C12D0F8001221F00101C0F800120020FB
:1010F00010BD0000006400407047000070B50C4C4B
:101100000025012625606560A560E56025612662F1
:101110006561C4E9065621460648FFF767FFC4E942
:1011200004562146BDE870400348FFF75FBF00004A
:10113000000A002094110020BC11002030B590F866
:101140002040012C05D0022C03D0416A41F48021BB
:101150005DE00468002955D02469A40754D04FF4F9
:10116000D874056804EB01142D5915F00405956039
:1011700005682D594ED0ED08556005682C5904F0CE
:101180000204D4604FF4DA74056804EB01142D599D
:1011900005F00F05156105682D59C5F30725956103
:1011A00005682C59240C54614FF4DC72046802EB7E
:1011B0000112A4581C700468A458240A5C700468C6
:1011C000A458240C9C700468A258120EDA704FF4D4
:1011D000DE72046802EB0112A4581C710468A45862
:1011E000240A5C710468A458240C9C710468A258F9
:1011F000120EDA71006881B1016941F020010161CC
:10120000002030BDE468A8E7416A41F40011416262
:10121000012030BD6D0D1560AFE7C16841F02001C0
:10122000C160EDE72DE9F05F0546006800244669DE
:10123000D0F804908768D0F80CB0D0F810A0D0F89F
:101240001880F10748D0F90714D001218160B80750
:1012500003D5284600F09DFA0CE0780702D54FF43C
:10126000006407E0380702D54FF4805402E02846B6
:1012700000F08EFAF80516D529684FF48070886062
:10128000B80503D5284600F086FA0CE0780502D5AB
:1012900044F4005407E0380502D544F4804402E0E9
:1012A000284600F077FAF80316D529684FF4803005
:1012B0008860B80303D5284600F06FFA0CE0780385
:1012C00002D544F4004407E0380302D544F48034E6
:1012D00002E0284600F060FA300707D55FEACB60ED
:1012E00004D52968102044F40074C86070074FF0DA
:1012F000080707D55FEA0B7004D52868C760284641
:1013000000F09AF9B00706D52868C068800702D0B7
:10131000284600F093F9700607D55FEACA6004D545
:101320002968102044F480640861B00607D55FEA9C
:101330000A7004D528680761284600F0E3F9F00632
:1013400006D528680069800702D0284600F0DBF93E
:10135000B00308D55FEAC96005D529681020486048
:10136000284600F0DBF9F00307D55FEA097004D5E1
:1013700028684760284600F011FA300446D55FEA35
:10138000497040D5F00504D55FEAC87001D044F03B
:101390000104B00504D55FEA887001D544F0020469
:1013A000700504D55FEA487001D544F004043005A7
:1013B00029D518F0700F26D008F07000402815D0FD
:1013C00006DC102809D020280AD0302816D10AE0DF
:1013D00050280ED0602811D10EE044F008040DE032
:1013E00044F010040AE044F0200407E044F0400414
:1013F00004E044F0800401E044F4807428688169CA
:1014000021F070018161296804204860002C05D01A
:10141000686A204368622846FFF76EFEBDE8F09FC9
:1014200070B5040003D094F8200010B104E001204E
:1014300070BD204600F082F82068016841F001018B
:10144000016000F043FC0546052604E000F03EFC88
:10145000401B0A2811D820684068C007F6D02068D1
:10146000016821F00201016000F030FC05460BE04C
:1014700000F02CFC401B0A2806D9606A40F40030BA
:10148000606284F82060D2E7206840688007EFD46B
:10149000207E0128206801683DD021F08001016094
:1014A000607E01282068016838D021F04001016089
:1014B000A07E01282068016833D021F0200101605E
:1014C000E07E0128206801682ED041F01001016003
:1014D000207F01282068016829D021F008010160DF
:1014E000607F01282068016824D021F00401016098
:1014F000D4E902010843D4E90412114308436168A6
:10150000491E08432168C86100206062012084F8F8
:101510002000002070BD41F08001C0E741F0400193
:10152000C5E741F02001CAE721F01001CFE741F003
:101530000801D4E741F00401D9E70000F0B587B015
:10154000044614216846FEF7DAFF364B3648DFF8CA
:10155000D0E01968D4F800C0334A032502260927D1
:1015600010300024491CF44522D11960012907D10B
:10157000016841F000710160006800F000700590A2
:10158000106840F0080010601068CDE9005600F0C7
:101590000800CDE9047069462448CDE9024500F011
:1015A00093FA00220521142000F022FC142032E0DE
:1015B000DFF87CE0F44530D1D0F800C04CF0806C0E
:1015C000C0F800C0D0F800C001290CF0806CCDF844
:1015D00014C0196007D1016841F000710160006812
:1015E00000F000700590106840F002001060106874
:1015F00002AB00F0020005906020CDE9000683E810
:10160000B00069460B4800F05FFA00220521402037
:1016100000F0EEFB402000F0DDFB07B0F0BD000065
:1016200000640040EC08002030380240000C02400A
:1016300000680040000402407047000070B5006878
:101640002549264D264E274C884225D1264B324629
:1016500000212648FFF772FD00281CD13268102AAD
:101660000CD12149224E087800F001037370214B00
:10167000C0F34100D87148781F49C8705FF000017D
:1016800054F82100037E13B9C38A93421AD0491C2F
:1016900089B20B29F4D370BD18498842FBD1124B93
:1016A0000F4A00211648FFF749FD0028F3D1D6F86C
:1016B0000020002154F82100037E012B07D1C38AAA
:1016C000934204D12A68BDE8704007491047491C7D
:1016D00089B20B29EED370BD00640040E4070020FE
:1016E000400A0020940500204008002094110020AA
:1016F0000000002018000020C805002000680040FD
:10170000BC11002070477047034800210160416010
:1017100001618160C1607047400A0020704700008D
:1017200070B5044690F82000012804D0606A40F4A7
:101730000020606218E0022084F820002068016820
:1017400021F00101016000F0C1FA05460EE000BF82
:1017500000F0BCFA401B0A2808D9606A40F4003047
:101760006062052084F82000012070BD2068406878
:10177000C007EDD1606270BD044908600020486078
:1017800008228860C1E9030270470000280A00208F
:1017900070477047704770477047704770472DE932
:1017A000F0410446876D00F091FA064694F8350042
:1017B0000025022806D08020606584F8345001207E
:1017C000BDE8F0812068016821F016010160206801
:1017D000416921F080014161206C08B9A06C20B101
:1017E0002068016821F0080101602068016821F08B
:1017F000010101600CE000F069FA801B052807D99F
:1018000020206065032084F8350084F83450D7E741
:1018100020680068C007EED194F85C103F20884033
:10182000B860012084F8350084F834500020C7E700
:1018300090F83510022903D08021416501207047BE
:10184000052180F835100068016821F00101016070
:10185000002070472DE9F84304464FF00009CDF809
:10186000009063484FF41651A56D0068B0FBF1F786
:101870002E6894F85C10082000FA01F131420FD074
:1018800021680A6852070BD50A6822F004020A6030
:1018900094F85C108840A860606D40F001006065BD
:1018A00094F85C104FF0010808FA01F0304208D0BB
:1018B00021684969090604D5A860606D40F00200FE
:1018C000606594F85C1004208840304208D021689C
:1018D0000968890704D5A860606D40F00400606560
:1018E00094F85C1010208840304218D021680968B4
:1018F000090714D5A86020680168490304D5006869
:10190000000308D5A16C07E00168C90503D401688C
:1019100021F008010160216C09B12046884794F844
:101920005C1020208840304231D021680968C90607
:101930002DD5A86094F8350005282068016806D0E8
:10194000490347D5006800031DD4616C1CE021F0F9
:10195000160101602068416921F080014161206C1D
:1019600008B9A06C20B12068016821F0080101606D
:1019700094F85C103F208840A86084F8358084F893
:101980003490216D1FE0E16B09B120468847606DFE
:1019900000282BD0606DC00714D0052084F83500D6
:1019A0002068016821F0010101600098401C00904E
:1019B000B84203D820680068C007F6D184F83580A3
:1019C00084F83490E16C002910D001B02046BDE8C5
:1019D000F04308470168C905D5D4016821F010011A
:1019E000016084F8358084F83490CCE7BDE8F88352
:1019F000FC0800202DE9F041044600F067F9064696
:101A00005CB1022084F83500002584F83450206849
:101A1000016821F0010101600DE00120BDE8F081C5
:101A200000F054F9801B052805D9202060650320AB
:101A300084F83500F2E720680068C007F0D122681A
:101A4000116820480140D4E901031843D4E9033662
:101A50003343184363691843A3691843E369184380
:101A6000236A18430843616A042903D1D4E90B139C
:101A700019430843106020684069666A20F0070136
:101A800030460E43012704280CD1A06A0643E06AC1
:101A900040B12046FFF7AEF920B14020606584F8E0
:101AA0003570BAE7206846612046FFF78FF994F851
:101AB0005C203F2191408160656584F8357000208D
:101AC000ACE700003F8010F02DE9F84FDFF8BCA133
:101AD000002201250AF1040B03264FF00F090BF138
:101AE000040E00BF0B6805FA02F42340A34270D134
:101AF0000F7907F00307012F01D0022F16D1876855
:101B00004FEA420806FA08FC27EA0C07D1F80CC095
:101B10000CFA08FC4CEA070CC0F808C04768A74359
:101B20000C79C4F3001494403C4344600C79E443C2
:101B3000A4070AD0C4684FEA420C06FA0CF7BC436B
:101B40008F6807FA0CF72743C7600C7904F0030489
:101B5000022C12D1D40800EB840CDCF8204057078B
:101B6000FF0E09FA07F824EA0804D1F8108008FAF1
:101B700007F848EA0408CCF8208004684FEA420CD1
:101B800006FA0CF7BC430F7907F0030707FA0CF7C6
:101B9000274307604C6814F4403F70D03C4C2768E2
:101BA00047F480472760246822F0030704F4804448
:101BB0000094384C07EB040CDCF8084897074FEA10
:101BC000177809FA08F7BC43334FB84202D100270F
:101BD00024E054E0314FB84201D101271EE0304FDC
:101BE000B84201D1022719E02E4FB84201D1032794
:101BF00014E02D4FB84201D104270FE02B4FB8421B
:101C000001D105270AE02A4FB84201D1062705E095
:101C1000284FB84201D1072700E0082707FA08F744
:101C20002743CCF80878DAF800405746D1F804C0CA
:101C30009C435FEACC3C00D51C433C60DBF8004091
:101C40005F46D1F804C09C435FEA8C3C00D51C433E
:101C50003C60DEF800407746D1F804C09C435FEA60
:101C6000CC2C00D51C433C60084F0C373C68D1F8A5
:101C700004C09C435FEA8C2C00D51C433C60521C82
:101C8000102AFFF42FAFBDE8F88F0000003C0140A0
:101C9000443802400030014000000240000402408D
:101CA00000080240000C02400010024000140240F4
:101CB00000180240001C02400069084000D00120CA
:101CC00070470AB1816170470904FBE701488068E9
:101CD00070470000F008002000684AF6AA21016061
:101CE0000020704702488168027811448160704783
:101CF000F00800200B4810B5016841F40071016044
:101D0000016841F480610160016841F48071016003
:101D1000032000F08DF80F2000F006F800F03EF8E8
:101D2000002010BD003C024010B5014688B00022E2
:101D30001C2000F05DF81C2000F04CF81448002432
:101D4000016841F001010160006805A900F001008F
:101D50000690684600F018F900F036F90D49400089
:101D6000B0FBF1F10C484FF08042491E026040F296
:101D7000E732C0E90324C0E9011400F02FFB10B1E1
:101D8000012008B010BD044800F056FBF9E7000040
:101D90004038024040420F00841500200C4882B0B9
:101DA000016841F480410160006800F480400090C7
:101DB0000748001F016841F080510160006800225F
:101DC00000F0805000900F21901E02B000F010B87B
:101DD00044380240002809DB00F01F020121914035
:101DE0004009800000F1E020C0F8001170470000B9
:101DF000F0B40E4B1B680C46C3F30223C3F1070576
:101E0000042D00D90425191D072901D2002300E063
:101E1000DB1E012606FA05F1491E214099409E402D
:101E2000761E16403143F0BC01F083BF0CED00E09C
:101E3000064900F0070208684FF6FF03184040EA21
:101E40000220034A10430860704700000CED00E0D8
:101E50000000FA052DE9F0470E46050065D0DFF8D1
:101E60001481D8F80000F7B200F00700B04207D2A2
:101E700088F80070D8F8000000F00700B04254D194
:101E800028683D4C810712D5400703D5206840F4EF
:101E9000E05020602878000703D5206840F46040B7
:101EA00020602068A96820F0F000084320602878AE
:101EB000C0072DD0304968680839012812D002289F
:101EC00013D0032811D00968890700292DDA216869
:101ED00021F0030101432160FFF7F8FE814641F242
:101EE000883A0EE009688903EFE709688901ECE7A1
:101EF000FFF7ECFEA0EB0901514502D90320BDE834
:101F0000F0872068696800F00C00B0EB810FEFD11A
:101F1000D8F80010404601F00701B14207D9077018
:101F2000006800F00700B04201D00120E7E7287800
:101F3000400705D52068E96820F4E0500843206098
:101F40002878000706D52068296920F4604040EA17
:101F5000C100206000F058F82168084AC1F303115D
:101F6000515CC8400649086006480068FFF7DCFE7F
:101F70000020C4E7003C024008380240B495000845
:101F8000FC080020F40800200F2202600C4A1368AD
:101F900003F003034360136803F0F00383601368E6
:101FA00003F4E053C36012684FF4E05303EAD20233
:101FB00002610448006800F00700086070470000F4
:101FC00008380240003C024004480549006809689E
:101FD000044AC1F38221515CC8407047FC080020CC
:101FE00008380240C495000804480549006809689B
:101FF000044AC1F34231515CC8407047FC080020DC
:1020000008380240C4950008154810B5006810F063
:102010000C02144813D01449042A0FD0082A0ED1F8
:102020000F4C241F2268236802F03F025B0207D591
:102030002068C0F38810A0FB010106E0084610BD2F
:102040002168C1F38811A1FB00010023FEF78CF980
:102050002168C1F30141491C4900B0FBF1F010BDFA
:10206000083802400024F40040787D012DE9F84F43
:1020700004006ED02078DFF84C93C007A9F1040566
:102080004AD009F104000168C1F38101012908D097
:102090000068C0F3810002280AD1D9F8000040028C
:1020A00006D52868800337D560680028E1D033E082
:1020B0006068B0F5803F10D0B0F5A02F286810D030
:1020C00020F480302860286820F480202860606830
:1020D000A8B1FFF7FBFD06460DE0286840F480300C
:1020E000F4E740F480202860F7E700BFFFF7EEFD3B
:1020F000801B642873D828688003F7D50CE0FFF7AD
:10210000E5FD064605E000BFFFF7E0FD801B642803
:10211000F0D828688003F7D42078DFF8AC828007F5
:102120004FF0000A3ED5A748001D016811F00C0FC2
:1021300008D00068C0F3810002280BD1D9F8000054
:10214000400207D42868800716D5E068012800D12E
:1021500012E033E1E068B8B10120C8F80000FFF7F1
:10216000B5FD064605E000BFFFF7B0FD801B022865
:10217000C0D828688007F7D52868216920F0F800C2
:1021800040EAC10028600DE0C8F800A0FFF79EFDFE
:10219000064604E0FFF79AFD801B02281FD8286836
:1021A0008007F7D42078000722D5864F87486169D9
:1021B000703771B101210160FFF788FD064604E028
:1021C000FFF784FD801B022809D838688007F7D5FF
:1021D0000EE0C0F800A0FFF779FD064605E082E0BA
:1021E000FFF774FD801B02287DD838688007F7D47C
:1021F0002078400768D5DFF8CCB100270BF13C0B05
:10220000DBF80000C0000BD4DBF8001041F0805177
:10221000CBF80010DBF80000012700F080500090A0
:102220006B4E3068C00510D4306840F48070306068
:10223000FFF74CFD009005E0FFF748FD0099401ABC
:10224000022850D83068C005F6D55E4EA0686C36BE
:1022500001280FD00528306810D020F00100306030
:10226000306820F004003060A068B8B1FFF72EFDA0
:1022700000900FE0306840F00100F4E740F0040007
:102280003060F7E7FFF722FD0099411A41F28830EC
:10229000814266D830688007F4D50EE0FFF716FD5E
:1022A000009007E0FFF712FD0099411A41F28830D3
:1022B000814256D830688007F4D42FB1DBF8001083
:1022C00021F08051CBF80010A069C8B33D49091D29
:1022D0000968C1F3810102294AD00228504607D07B
:1022E000C8F8600000E03CE0FFF7F0FC04463BE08B
:1022F0004746C8F86000FFF7E9FC064605E000BF66
:10230000FFF7E4FC801B02282BD828688001F7D453
:10231000D4E907010843A16A2E4A490802EB0141AA
:10232000626A41EA8211084394F82C1040EA016184
:10233000C9F8001001203866FFF7C8FC044606E023
:102340003EE000BFFFF7C2FC001B022809D8286846
:102350008001F7D534E000BFFFF7B8FC001B02286E
:1023600002D90320BDE8F88F28688001F4D427E063
:102370000128F7D0D9F80000E26900F48001914209
:102380001CD1226A00F03F01914217D147F6C0717B
:10239000626A0140B1EB821F10D1A26A4FF0FF3395
:1023A00000F4403103EB5202B1EB024F06D194F836
:1023B0002C1000F07060B0EB016F01D00120D1E76C
:1023C0000020CFE70438024000004742800E474219
:1023D000007000400000FFFF7047704710B5040018
:1023E00003D094F83D0010B107E0012010BD00209B
:1023F00084F83C00204600F01EF8022084F83D00DE
:10240000211D206801F040FA012084F8460084F87C
:102410003E0084F83F0084F8400084F8410084F8CE
:10242000420084F8430084F8440084F8450084F8AE
:102430003D00002010BD704790F83D10012901D0EB
:1024400001207047022180F83D100168CA6842F0FF
:102450000102CA6000681149884214D0B0F1804F6F
:1024600011D00F4988420ED00E4988420BD00E4938
:10247000884208D00D49884205D00D49884202D0D3
:102480000C49884204D1816801F00701062903D074
:10249000016841F001010160002070470000014027
:1024A0000004004000080040000C0040000401400F
:1024B0000040014000180040704770B504460068B5
:1024C00001694FF00005C943890715D4C168C943A4
:1024D000890711D4E91E01610120207720688069F5
:1024E0008007204602D0FFF7E7FF04E000F098F8ED
:1024F000204600F096F8257720680169C94349070E
:1025000017D4C168C943490713D46FF004010161AE
:10251000022020772068806910F4407F204602D096
:10252000FFF7CAFF04E000F07BF8204600F079F8DE
:10253000257720680169C943090716D4C168C943D2
:10254000090712D46FF00801016104202077206888
:10255000C0698007204602D0FFF7AEFF04E000F01C
:102560005FF8204600F05DF8257720680169C943CF
:10257000C90617D4C168C943C90613D46FF0100146
:102580000161082020772068C06910F4407F204650
:1025900002D0FFF791FF04E000F042F8204600F07F
:1025A00040F8257720680169C943C90708D1C16887
:1025B000C943C90704D1891E0161204600F032F8E1
:1025C00020680169C943090609D4C168C9430906DD
:1025D00005D46FF0800101612046FFF7FDFE206801
:1025E0000169C943490609D4C168C943490605D4EC
:1025F0006FF040010161204600F01BF8206801697E
:10260000C94389060BD4C168C943890607D46FF052
:10261000200101612046BDE87040FFF7DEBE70BDBD
:10262000704770470068B0F1804F01D1FFF75ABB87
:102630007047704770477047F8B5016804460868EE
:10264000CA684B6910F00F0F4FF0000559D003F026
:10265000010602F49077374365D0C10705D0D10554
:1026600003D5216C41F001012164410705D5D9074B
:1026700003D0216C41F002012164810705D5D907FF
:1026800003D0216C41F004012164010707D502F059
:102690002001314303D0216C41F008012164216CF9
:1026A00000293AD0800604D5900602D5204601F0D4
:1026B000A8F920684069216CC0F38010090700D494
:1026C00060B3204601F076F920684069400621D5C4
:1026D0002068143050E8001F21F0400140E800124B
:1026E000002AF5D1A06BA8B16C490165A06BFFF77A
:1026F0009FF8002811D0A06B016D01B0BDE8F0403B
:10270000084783060FD593060DD52046BDE8F8404F
:1027100001F077B92046FFF78EFFF8BD2046FFF79E
:102720008AFF2564F8BD266B2023012E79D1C606C9
:1027300077D5D60675D50868486800904869400680
:1027400040D5A16B086840680004000CEAD0A28D57
:102750008242E7D9E085C869B0F5807F2DD0206836
:102760000C3050E8001F21F4807140E80012002A6C
:10277000F5D12068143050E8001F21F0010140E835
:102780000012002AF5D12068143050E8001F21F013
:10279000400140E80012002AF5D184F83E3025635C
:1027A00020680C3050E8001F21F0100140E80012B2
:1027B000002AF5D1A06BFEF7F2FFA08DE18D401A43
:1027C00081B229E0A08DE18D401A81B2E08D002810
:1027D000A8D00029A6D020680C3050E8002F22F4A1
:1027E000907240E80026002EF5D12068143050E8A1
:1027F000002F22F0010240E80026002EF5D184F8D7
:102800003E30256320680C3050E8002F22F0100283
:1028100040E80023002BF5D12046FFF70BFFF8BD61
:10282000FFE705062BD5150629D594F83D0021288C
:10283000F5D1A068B0F5805F01D12069B0B1206A00
:10284000411C2162216800784860E08C401E000431
:10285000000CE084E3D12068C16821F08001C160F0
:102860002068C16841F04001C160D8E7206A008853
:10287000C0F308004860206A801C2062E5E740063B
:10288000CDD55006CBD5CA68204622F04002CA609A
:1028900084F83D3000F003FAC1E70000A5390008D4
:1028A00070B5040004D094F83D00002510B106E096
:1028B000012070BD84F83C50204600F023F824200D
:1028C00084F83D002068C16821F40051C1602046B1
:1028D00001F0F8F82068016921F490410161206855
:1028E000416921F02A0141612068C16841F4005129
:1028F000C1602564202084F83D0084F83E0000205B
:1029000070BD00002DE9F04F87B0054614216846E0
:10291000FDF7F5FDD448DFF84C8310380222D5F8D6
:1029200000C0D14B0321DFF844E3002497060615CD
:102930004FF0080B4FF48079C44553D1D3F800C051
:102940004CF4002CC3F800C01B6803F4002305936B
:10295000036843F001030360006800F00100059084
:102960008DE81600CDE9031B69467046FFF7ACF809
:10297000DFF800A3BE495046CAF80010C0E9017450
:10298000C0E90346CAF81440C0E90649CAF8204025
:10299000B846CAF82440FFF72DF808B1FEF790FAC0
:1029A000B44FB348C5F838A060373030CAF8385053
:1029B000E7E80208402051C7AE4847F814496030A4
:1029C000BC61FC613C627C62FFF714F808B1FEF761
:1029D00077FA6F63002205213420BD63FFF708FA00
:1029E000342073E0DFF89082C44575D1D3F800C07D
:1029F0004CF4801CC3F800C01B6803F480130593DB
:102A0000036843F004030360036803F004030593C1
:102A1000036843F0080303600068884600F008007C
:102A200005904FF48050CDE900020DF1080C92465C
:102A30008CE8100969469148FFF746F80420CDE973
:102A4000000A0DF1080A69468AE810098C48FFF768
:102A50003BF8DFF820B286490BF1C00B30395846FD
:102A6000CBF80010C0E90174C0E90346CBF814406C
:102A7000C0E90649B246CBF82040B8464E46CBF8EE
:102A80002440FEF7B7FF08B1FEF71AFA78487D4FE9
:102A9000C5F838B07830CBF83850E7E80208402065
:102AA000A7E81104774847F81449C7E906463C628D
:102AB0007C62FEF79FFF08B1FEF702FA6F63002207
:102AC00005213520BD63FFF793F93520FFF782F923
:102AD00007B0BDE8F08FFFE7DFF8AC814FF0070AE1
:102AE000C44543D1604B1B1DD3F800C04CF0100C03
:102AF000C3F800C01B6803F010030593036843F09C
:102B0000010303600068CDE9024100F00100059077
:102B10004FF4C060CDE90002CDF810A069467046C0
:102B2000FEF7D2FFDFF85C81584908F160084046A3
:102B3000C8F80010C0E90174C0E90346C8F81440A1
:102B4000C0E90649C8F82040C8F82440FEF752FF03
:102B500008B1FEF7B5F9C5F8388000220521252017
:102B6000C8F83850FFF744F92520AFE7DFF8208197
:102B7000C44555D1D3F800C04CF4003CC3F800C0A4
:102B80001B6803F400330593036843F001030360FB
:102B9000036803F001030593036843F0080303602F
:102BA0000068CDF800B000F008008846CDE904A028
:102BB000CDE902489346694601927046FEF784FFCC
:102BC0002020CDE9000B0DF1080C69468CE81005BA
:102BD0002B48FEF779FFDFF8AC80254908F1C008E3
:102BE00048314046C8F80010C0E90174C0E9034606
:102BF000C8F81440C0E90649C8F82040C8F8244085
:102C0000FEF7F8FE08B1FEF75BF9C5F83880002240
:102C100005212620C8F83850FFF7EAF8262055E7A6
:102C20001C4DAC457FF454AF1D6845F480251D60F4
:102C30001B6803F480230593036843F002030360D9
:102C40000068CDE9024100F0020005904FF44060B9
:102C5000CDE90002CDF810A069460F48FEF734FF19
:102C600036E70000004C00404038024000000240BF
:102C70004060024044130020005000400008024021
:102C8000000C024064140020001001404064024027
:102C90000044004000480040000402407047704774
:102CA000FEE704F02BF8012004F062FEF9E70000D3
:102CB00070B50D4C0025C4F8B4520C48016821F0E1
:102CC00040410160016841F080410160C4F8BC529C
:102CD000022004F52D7402F003FB01202060022085
:102CE00002F0FEFA256070BD008040420004024000
:102CF00070B50D4C0025C4F8B4520C48016821F0A1
:102D000040410160016841F0804101600126C4F842
:102D1000BC62022004F52D7402F0E2FA2660022063
:102D200002F0DEFA256070BD0080404200040240DF
:102D30002DE9F047814616480024016821F0404102
:102D4000016001680160134E254627464FF00108D7
:102D5000C6F8B472022002F0C3FAC6F8B482600664
:102D6000040ED6F83C0208B1641CE4B2012002F063
:102D7000B7FA6D1CEDB2082DEAD3B9F1000F04D0FB
:102D8000FFF796FF2046BDE8F087FFF7B1FFF9E7B0
:102D900000040240008040422DE9F04106461448FC
:102DA000016821F040410160016841F0804101600B
:102DB000104C0027C4F8B4723D464FF00108F009EA
:102DC000C4F8BC027006060E022002F089FAC4F8AC
:102DD000B482022002F084FAC4F8B472022002F035
:102DE0007FFA6D1CEDB2082DE9D3BDE8F08100003B
:102DF000000402400080404270B50D48016821F097
:102E000040410160016841F080410160094C0120AE
:102E1000C4F8BC02C4F8B402042004F52D7402F016
:102E20005FFA0025A560042002F05AFA256070BD03
:102E300000040240008040420E4810B5016821F0B5
:102E400040410160016841F0804101600A4C00206E
:102E5000C4F8B402C4F8BC02042004F52D7402F0D6
:102E60003FFA01202060A060BDE81040042002F07D
:102E700037BA0000000402400080404270B512489A
:102E80000024016821F040410160016801600F4D9C
:102E90000126C5F8BC62304602F022FAC5F8B462D9
:102EA000012002F01DFA07E0641CE4B2FA2C03D9F9
:102EB000FFF7C2FF012070BDD5F83C020028F3D116
:102EC000C5F8B40270BD000000040240008040421A
:102ED00010B5064C06492046D4F874219047204688
:102EE000D4F87821BDE8104001491047E4050020DE
:102EF0008007002010B581880068FEF7DDFE08B16C
:102F0000002010BD012010BD094E0A4C0A4D30783A
:102F1000012801D103F010FC04F06CFA94ED030ACF
:102F20000120B1EE400A85ED010A04F021FDEEE733
:102F30000000002078020020800900202DE9F041E7
:102F400016460D460746FFF757FF134C20784006FC
:102F5000000EFFF721FFFFF791FF3846FFF71CFF38
:102F6000FFF78CFFFFF748FF2078012101EB4000BD
:102F7000C0B2FFF711FFFFF781FF002406E0012038
:102F8000FFF7D6FE641C05F8010BE4B2B442F6D399
:102F9000BDE8F041FFF750BFC0080020104810B551
:102FA0000E4901600321416000214FF4002281603D
:102FB000C0E903124FF440124261017601224276C9
:102FC0008276C17601774277FEF72AFA002803D08D
:102FD000BDE81040FDF774BF10BD00000064004064
:102FE00094110020104810B50E4901600321416082
:102FF00000214FF400228160C0E903124FF4401217
:1030000042610176012242768276C176017742776B
:10301000FEF706FA002803D0BDE81040FDF750BFC8
:1030200010BD000000680040BC110020214808B518
:10303000016841F400110160016801F40011009180
:10304000016841F4800101600068002200F4800002
:10305000009005210B20FEF7CBFE0B20FEF7BAFEF9
:10306000002205210D20FEF7C3FE0D20FEF7B2FE63
:10307000002205210F20FEF7BBFE0F20FEF7AAFE5F
:10308000002205211020FEF7B3FE1020FEF7A2FE5D
:10309000002205212F20FEF7ABFE2F20FEF79AFE1F
:1030A000002205213A20FEF7A3FEBDE808403A20A1
:1030B000FEF790BE3038024010B5C6B01C2237492A
:1030C0006846FDF7C8F90021684604F05DFC344C01
:1030D00032491C2220601C3107A8FDF7BCF90021F1
:1030E00007A804F051FC2D4960601C2238310EA85D
:1030F000FDF7B1F900210EA804F046FC2749A060B5
:103100001C22543115A8FDF7A6F9002115A804F0DA
:103110003BFC2249E0601C2270311CA8FDF79BF9A2
:1031200000211CA804F030FC1C4920611C228C31B9
:1031300023A8FDF790F9002123A804F025FC1749E6
:1031400060611C22A8312AA8FDF785F900212AA870
:1031500004F01AFC1149A0611C22C43131A8FDF70A
:103160007AF9002131A804F00FFC0C49E0611C221F
:10317000E03138A8FDF76FF9002138A804F004FC0D
:10318000064920621C22FC313FA8FDF764F90021AA
:103190003FA804F0F9FB606246B010BD94940008AB
:1031A000C40800202DE9F04786B014216846FDF7D9
:1031B000A6F93F480024016841F010010160016850
:1031C00001F010010591016841F0040101600168FE
:1031D00001F004010591016841F08001016001687E
:1031E00001F080010591016841F001010160016871
:1031F00001F001010591016841F0020101600168DF
:1032000001F002010591016841F0080101600068C8
:10321000DFF8A08000F008000590002278214046E9
:10322000FEF74FFDDFF890A000224FF4D841504642
:10323000FEF747FDDFF884904FF42047002239461F
:103240004846FEF73EFD782001250226CDE900051F
:10325000CDE9024669464046FEF736FC4FF4C040D1
:103260000090CDE90154694650460394FEF72CFCCA
:103270000320CDE90240CDE9007569464846FEF7D6
:1032800023FC4FF47070CDE9000469465046029467
:10329000FEF71AFC4FF44060CDE90005CDE9024687
:1032A00069465046FEF710FC06B0BDE8F087000006
:1032B0003038024000100240000802400004024082
:1032C0000C4810B50A4901604FF4E131416000211A
:1032D00081600C22C160C0E904128161C161FFF705
:1032E000DFFA002803D0BDE81040FDF7E9BD10BDAE
:1032F000004C0040F01100200C4810B50A49016054
:103300004FF4E1314160002181600C22C160C0E9CD
:1033100004128161C161FFF7C3FA002803D0BDE840
:103320001040FDF7CDBD10BD00500040341200200C
:103330000C4810B50A4901604FF4E13141600021A9
:1033400081600C22C160C0E904128161C161FFF794
:10335000A7FA002803D0BDE81040FDF7B1BD10BDAD
:1033600000100140781200200C4810B50A49016095
:103370000B494160002181600C22C160C0E9041248
:103380008161C161FFF78CFA002803D0BDE81040CD
:10339000FDF796BD10BD000000440040BC120020A7
:1033A000A08601000C4810B50A4901604FF4E131D4
:1033B0004160002181600C22C160C0E9041281617A
:1033C000C161FFF76DFA002803D0BDE81040FDF79A
:1033D00077BD10BD0048004000130020FEE700004C
:1033E0000D4E0E4C0E4D3078012801D103F016F928
:1033F00001F05CFA6088A880B4F85200E880D4F844
:10340000A00080792872D4F8A40080796872012025
:1034100004F0AEFAE7E7000000000020D001002031
:103420008C090020FEE701F05BFA022004F0A0FA0C
:10343000F9E7000090EC020ADFED291A30EE601A7D
:10344000D0ED030A9FED250A20EE800A01EE210A45
:1034500080ED020A70EE601AC0ED0C1AD0ED080A79
:1034600070EE800AC0ED080A90ED091AF4EEC10A68
:10347000F1EE10FA06DCB1EE411AF4EEC10AF1EEFB
:1034800010FA01D2F0EE410AC0ED080A80ED030AFD
:1034900090ED041A21EE000A90ED051A01EE200AC3
:1034A000D0ED060A00EEA10A80ED070AD0ED0B1A56
:1034B00090ED0A1A71EE810AF4EEC00AF1EE10FAEC
:1034C00006D371EE610AF4EEC00AF1EE10FA01DDE6
:1034D000B0EE600A80ED070A704700003333333FD7
:1034E0009A99993E8A680B4608B1012100E00021B3
:1034F0001846104783880A4600681946FEF7E1BB64
:103500002DE9F04F8F48904B0146C47891ED041A95
:1035100091F802C02031D3ED000AB1F91420012C3A
:1035200030D0022C48D186462030884CB0F9065065
:10353000B0F904604FF49679B0F902004FF0010A37
:103540004FF0000BC9F10007BCF1000F36D0DFF8D7
:10355000F481B1F90010BCF1010F98ED050A54D0C7
:10356000BCF1020F28D101EE905A4D46A942F8EE67
:10357000E11A41EE810AC3ED000A01DCB84271DABA
:1035800001239EE001787248012902D1BCF1020FAB
:1035900003D0BCF1010F03D006E09FED6E0A01E0FD
:1035A0009FED6D0A80ED000A00EE102AB8EEC00A09
:1035B00040EE410AC3ED000ABDE8F08F00EE105A5C
:1035C000D4ED000A9EED021AB8EEC00A634D4845DC
:1035D00040EE410A00EE106AB8EEC00AC4ED000ADF
:1035E000D5ED000A9EED031A40EE010AC5ED000A72
:1035F00002DD83F808A003E0B84201DA83F808B0DE
:103600004A457DDD84F808A0D6E701EE905A544C77
:10361000DEED072AF8EEE11A94ED002A4D46A942A4
:1036200001EEA22A01EE906AF8EEE11A84ED002A7A
:1036300094ED012ADEED062A01EEE22A84ED012A4C
:1036400001DCB84201DA012400E0002401EE904AD6
:10365000B942F8EE611A61EE801A01DBA84202DD80
:10366000012401E02CE0002402EE104A3D4CA94266
:10367000B8EE422A40EE421AFDEEE11A11EE906ACF
:10368000268001DC484501DD012500E0002501EE32
:10369000905AB942F8EE611A61EE801A01DBB84225
:1036A00001DA012000E0002002EE100AB8EE422A02
:1036B00040EE421ABDEEE10A10EE100A608073E798
:1036C000002300EE903AB942F8EE600A60EE800AFC
:1036D00001DBA84201DD012300E0002301EE103AE6
:1036E000204BA942B8EE411A40EE410AFDEEE00A35
:1036F00010EE906A1E8001DCA84202DD012601E086
:1037000019E0002600EE906AB942F8EE600A60EE19
:10371000800A01DBB84201DA012000E0002001EE5E
:10372000100AB8EE411A40EE410ABDEEE00A10EE72
:10373000100A588064E7BA42BFF666AF84F808B052
:103740003AE7000060070020800900206809002097
:10375000AC09002000D0844700000000740900205C
:10376000980900208C090020818800680022FEF75B
:10377000A8BA0000084E094C094D3078012801D143
:1037800003F098F804F02EFC94ED030A012085ED77
:10379000010A04F0EDF8F0E7000000201005002019
:1037A000AC09002010B5502080F31188BFF34F8F73
:1037B000BFF36F8F05F02CF818B104494FF080501B
:1037C0000860002080F3118810BD000004ED00E0C7
:1037D00030B593B030216846FCF791FE14210CA857
:1037E000FCF78DFE1F480025016841F08051016003
:1037F000006800F0805011901B48016841F480413E
:1038000001600068022400F48040119009200090BB
:103810004FF4803001900120CDE905048005079028
:10382000192008904FF4A870CDE9090404200B90EA
:103830006846FEF71BFC08B172B6FEE70CA90F2024
:1038400081E831004FF4A0500F904FF48050109059
:1038500005210CA8FEF7FEFA002801D072B6FEE79B
:1038600013B030BD4038024000700040024801688B
:1038700041F470010160704788ED00E00148FEF7F7
:103880001CBE000084150020F0B50268254C264DB2
:10389000264E274F274B4FF0804CA04209D0604561
:1038A00007D0A84205D0B04203D0B84201D0984218
:1038B00004D122F0700E4A6842EA0E02A0421BD0E8
:1038C000604519D0A84217D0B04215D0B84213D0E5
:1038D000984211D0184DA8420ED0184DA8420BD0D6
:1038E000174DA84208D0174DA84205D0164DA84242
:1038F00002D0164DA84203D122F44075CA682A436B
:103900004D6922F080022A4302608A68C2620A6816
:103910008262A04201D0984201D10969016301216C
:103920004161F0BD0000014000040040000800407B
:10393000000C0040000401400040014000440140F0
:103940000048014000180040001C004000200040DA
:10395000084E094C094D3078012801D102F0CCFF06
:1039600004F04AFC94ED030A012085ED010A03F0FE
:10397000FFFFF0E7000000204C0100207409002048
:1039800010B50448FDF791FABDE810400148FEF774
:1039900053BE0000F01100200148FEF74DBE0000AC
:1039A0003412002010B5806B0021C185C184FEF760
:1039B00042FE10BD01680C3151E8002F22F49072D4
:1039C00041E80023002BF5D10168143151E8002FA4
:1039D00022F0010241E80023002BF5D1016B0129FF
:1039E00009D101680C3151E8002F22F0100241E8A2
:1039F0000023002BF5D1202180F83E100021016327
:103A0000704708B590F83E10222901D0022008BD69
:103A100082684FF480539A4201D1016921B1816AD1
:103A20009A421BD04AB10AE00268816A5268C2F326
:103A300008020A80816A891C08E0026972B1026882
:103A4000526802F07F020A70816A491C8162C18D4E
:103A5000491E0904090CC18503D019E002685268A7
:103A6000F1E70168CA6822F02002CA600168CA68EA
:103A700022F48072CA6001684A6922F001024A6138
:103A8000202180F83E10016B012903D0FFF706F9D1
:103A9000002008BD0021016301680C3151E8002FAE
:103AA00022F0100241E80023002BF5D101680A68DA
:103AB000D20602D50A6849680091818DFEF7BAFDE9
:103AC000E6E7000070B5044600680169E26821F489
:103AD0004051114301612169A068E26908436169AD
:103AE000114308432168CA6849F20C639A430243B0
:103AF000CA6020684169A26921F4407111434161A3
:103B000031492068884202D03049884202D1FEF70C
:103B10006BFA01E0FEF758FAE269002319216425E7
:103B20003226B2F5004F626828D0A0FB0101930F46
:103B30009200FCF719FC0146B0FBF5F06FF018029B
:103B4000504301EB800006EB0010B0FBF5F000F0F5
:103B5000F002B1FBF5F002EB0012B1FBF5F06FF0F3
:103B60001803584301EB800006EB0010B0FBF5F0A2
:103B700000F00F0021681044886070BDA0FB0101B7
:103B800092185B41FCF7F0FB0146B0FBF5F0020137
:103B9000B1FBF5F06FF01803584301EB800006EB22
:103BA000C000B0FBF5F000F0F80002EB4002B1FB02
:103BB000F5F0584301EB800006EBC000B0FBF5F0D8
:103BC00000F00700D6E7000000100140001401409B
:103BD0000148FEF731BD0000781200207047000058
:103BE00010B50448FDF761F9BDE810400148FEF743
:103BF00023BD0000BC1200200C4808B501680A680B
:103C00004A680092CA6842F01002CA6001684A69B4
:103C100042F040024A61122100910168044B806B1E
:103C2000A3F11802091DFCF7AFFF08BDBC1200206C
:103C3000D20B00200188C1F30A022049A2F580625C
:103C40000A8042788378D20842EA4312C2F30A0219
:103C5000A2F580624A808278C378920942EA8302A0
:103C6000037942EA8322C2F30A02A2F580628A80C3
:103C700002794379520842EAC312C2F30A02A2F55A
:103C80008062CA80427992090A724279C2F30112B3
:103C90004A72C2884A8102898A814289CA81027B2A
:103CA0000A74427B4A74C2894A82008AC0F30A00BD
:103CB000A0F5806088820020C882704780070020BD
:103CC000704700000B4882B001680A684A68009299
:103CD000CA6842F01002CA6001684A6942F04002B4
:103CE0004A610168806BC823034A091D02B0FDF7D1
:103CF000ABB80000F0110020480D0020704770475D
:103D0000FEE703B401984100009850EAC12018BFB3
:103D100004204A0D18BF40F0010040F2FF72B2EBE0
:103D2000515F08BF40F00200012808BF052002B023
:103D300070470907090E002804DB00F1E02080F835
:103D40000014704700F00F0000F1E02080F8141D0F
:103D5000704700000000000070B5C1482DED020B57
:103D60002DED0E8B82B0119D25F000449FEDBEDB42
:103D70009FEDBFEB84423EDBA4F140511098A1F1CE
:103D80007F6108430FD0BC48844202DC28D11098E0
:103D900030B39DED100B02B0BDEC0E8B02B0BDE850
:103DA000704000F069BC9DED100B53EC1D2B51ECE5
:103DB000100B05F033F89DED100B41EC180B53EC94
:103DC0001E2B51EC100B05F029F853EC182B04F0C6
:103DD00025FE41EC100B02B0BDEC0E8B02B070BDA5
:103DE0000120FCF7BBFB02B0BDEC0E8B02B0BDE8BE
:103DF000704000F055BCA1489FEDA18B844256DA7B
:103E00009DED100BB4F1795F0ADA51EC100BFFF75E
:103E100078FF042808BF00F053FC9DED100BDAE793
:103E200053EC102B51EC100B04F0F8FF41EC190B84
:103E300095480621B0EE490AF0EE690A784400F090
:103E40009FFB53EC192B51EC100B04F0E7FF41ECF6
:103E50001A0B8E48B0EE490AF0EE690A0421784444
:103E600000F08EFB53EC192B51EC100B04F0D6FF35
:103E700053EC182B04F0D2FD41EC100B51EC1A0B53
:103E800053EC102B04F072FECDE900019DED000B08
:103E900053EC102B9DED100B51EC100B04F0BEFFFA
:103EA0009DED101B53EC112B04F0B8FDD2E09DEDFD
:103EB000100B51EC100B02F0A5FB53EC182B05F086
:103EC000ABF89FED730BCDE9000153EC102B9DED8A
:103ED000000B51EC100B04F0A1FF41EC190B6E48E4
:103EE0000621B0EE490AF0EE690A784400F048FB7A
:103EF00053EC192B51EC100B04F090FF41EC1B0B11
:103F00006648B0EE490AF0EE690A0421784400F0F0
:103F100037FB53EC192B51EC100B04F07FFF53ECE3
:103F2000182B04F07BFD41EC1C0B51EC190B04F039
:103F3000F5F841EC180B5A489FED5BABA04222DC30
:103F400053EC1C2B51EC1B0B04F010FECDE90001CF
:103F50009DED000B51EC180B53EC102B04F05EFFA1
:103F600053EC182B04F05AFD53EC1A2B04F056FFB7
:103F700053EC1D2B05F028F953EC1E2B05F04CF8E3
:103F800041EC100B5FE08DED008B002000909DED6B
:103F9000000B51EC180B53EC102B04F03FFD9DED82
:103FA000000B41EC1E0B53EC102B51EC100B04F0EA
:103FB00035FF53EC192B05F02FF853EC1E2B04F0B2
:103FC000D5FD41EC190B53EC1C2B51EC1B0B04F0F1
:103FD000CDFD41EC1B0B53EC1A2B51EC190B04F0EB
:103FE0001DFF53EC1D2B05F017F841EC190B53EC9A
:103FF0001A2B51EC180B04F011FF53EC1B2B04F09F
:104000000DFF53EC192B05F0DFF89DED000B41EC93
:10401000180B53EC1A2B51EC100B04F0FFFE9FED24
:10402000249B53EC192B04F0F7FF41EC100B51ECDF
:10403000180B53EC102B05F0C7F853EC192B04F0B8
:10404000EBFF41EC100B002D3FF7C5AE51EC100B10
:1040500004F0A6FC41EC100BBDE6000000000000DF
:104060000000F03F00000000075C143326A6913CDE
:10407000182D4454FB21F93F0000F07F0000E03F81
:10408000000000000000F03F905700009E57000025
:10409000000000000000E03FE2560000F056000083
:1040A0003333EF3F0000000000000000000000403C
:1040B000182D4454FB21E93F70B59B482DED020BB0
:1040C0002DED068B079D25F00044A04218DC974893
:1040D000844202DC0AD1069840B19DED060BBDEC8E
:1040E000068B02B0BDE8704000F0C6BA002DCCBF10
:1040F0009FED8F0B9FED900BBDEC068B02B070BD5A
:104100008F48A04215DD8F48A042D8BF4FF0FF3442
:1041100058DD9DED060B51EC100BFFF7F2FD042866
:1041200008BF00F0CDFA9DED060BBDEC068B02B08A
:1041300070BD9DED060B51EC100B02F063FACDE95A
:10414000060181489FED828BA0423CDD8248A0425F
:104150001FDD00249FED82AB9DED060B53EC1A2B67
:1041600051EC100B04F05AFC9DED060B41EC190BC1
:1041700053EC1A2B51EC100B04F050FE53EC182B9F
:1041800005F022F853EC192B04F0F0FCCDE9060100
:1041900049E09DED060B012453EC182B51EC100B5C
:1041A00004F03CFC9DED060B41EC190B53EC182B75
:1041B00051EC100B05F008F853EC192B04F0D6FC69
:1041C000CDE906012FE06848A0421FDD02249FEDE3
:1041D000689B9DED060B53EC192B51EC100B04F072
:1041E0001DFE53EC182B04F019FC9DED060B41EC61
:1041F000180B53EC192B51EC100B04F0E5FF53ECAA
:10420000182B04F0B3FCCDE906010CE09DED060B84
:10421000032453EC102B9FED580B51EC100B04F0C2
:10422000A5FCCDE906019DED060B53EC102B51ECDE
:10423000100B04F0F3FD41EC180B53EC182B04F0B9
:10424000EDFD41EC190B4E480621B0EE490AF0EEA7
:10425000690A784400F094F953EC182B51EC100BD8
:1042600004F0DCFD41EC180B4648B0EE490AF0EED4
:10427000690A0521784400F083F953EC192B51ECBD
:10428000100B04F0CBFD41EC100B51EC180B53EC70
:10429000102B002C0EDA04F0C1FB9DED061B53EC35
:1042A000112B04F0BBFD9DED061B53EC112B04F00C
:1042B000B3FE35E004F0B2FB9DED061B53EC112B71
:1042C00004F0ACFD41EC100B2F48784400EBC40027
:1042D00090ED001B51EC100B53EC112B04F074FF0C
:1042E0009DED061B53EC112B04F06EFF41EC100BFF
:1042F0002648784400EBC40090ED001B51EC100BF5
:1043000053EC112B04F088FE41EC100B002DA2BFE2
:10431000BDEC068B02B070BD51EC100B04F040FBFD
:1043200041EC100B01E70000000010440000F07F9A
:10433000182D4454FB21F93F182D4454FB21F9BF9B
:104340000000DC3F0000203E0000F33F00000000C2
:10435000000000000000F03F0000E63F0000000009
:10436000000000000000004000800340000000004A
:10437000000000000000F83F000000000000F0BF57
:1043800032540000E8530000725300002A5300002A
:1043900070B56B4E2DED040B2DED028B82B0DDF868
:1043A0001CC0DDE905235C422CF000411C4341EABE
:1043B000D474049D22F00040B44205D86C422C43D2
:1043C00040EAD474B4420BD99DED061B9DED040B5D
:1043D00002B0BDEC028B04B0BDE8704000F056B9ED
:1043E000ACF14054A4F17F641C430BD0022404EAD6
:1043F000AC7444EAD27405439FED538B9FED542B6C
:1044000007D015E09DED040B51EC100B00F0E2F924
:1044100042E0002C11BF012C9DED040B02B0BDEC5D
:10442000028B04BF04B070BD022C38D0032C3BD0EB
:104430000B439FED491B9FED4A0B0AD0B14218D1A7
:10444000B04209D121F0804120F0804007910590D1
:104450000FE0002A15DA10E0434B7B44002C08BF24
:1044600093ED000B0DD0012C10D0022C17D0032C93
:104470001AD0B0421DD1002A03DAB0EE410AF0EEA4
:10448000610A02B0BDEC028B04B070BD93ED000B6D
:1044900051EC100B04F084FA41EC100BF1E7B0EE94
:1044A000480AF0EE680AECE7B0EE420AF0EE620A63
:1044B000E7E7401A00153C28C8BF8DED000B19DC5A
:1044C000BCF1000FBEBF10F13C0F9FED290B8DED2D
:1044D000000B0FDB9DED060B53EC102B9DED040B39
:1044E00051EC100B04F042FB02F08CF800F072F972
:1044F000CDE90001002C08BF9DED000BC1D0012CBF
:1045000010D0022C9FED1C0B53EC102B9DED000BDB
:1045100051EC100B0DD004F057FE53EC182B04F0A7
:1045200053FEB9E7019880F0004001909DED000B2B
:10453000A7E704F049FE53EC182B04F06DFDABE740
:104540000000F07F00000000182D4454FB210940BA
:10455000182D4454FB2109C0182D4454FB21F9BFE8
:10456000182D4454FB21F93F5A520000000000006E
:104570000000000000000000075C143326A6A13CE8
:1045800070B504462DED028B4D1E00EBC500B0EE5C
:10459000408AF0EE608A90ED000B35F0060017D0EF
:1045A00053EC182B51EC100B04F038FC41EC100BC1
:1045B0006D1E04EBC50090ED001B51EC100B53EC8D
:1045C000112B04F02BFA41EC100B35F00600E7D16B
:1045D000022D36D0042D1CD0062D1CBFBDEC028B45
:1045E00070BD53EC182B51EC100B04F017FC94ED3C
:1045F0000A1B53EC112B04F011FA53EC182B04F0A6
:104600000DFC94ED081B53EC112B04F007FA41EC60
:10461000100B53EC182B51EC100B04F0FFFB94ED36
:10462000061B53EC112B04F0F9F953EC182B04F092
:10463000F5FB94ED040B53EC102B04F0EFF941EC77
:10464000100B53EC182B51EC100B04F0E7FB94ED1E
:10465000021B53EC112B04F0E1F953EC182B04F07E
:10466000DDFB94ED001B53EC112B04F0D7F9BDECEE
:10467000028B41EC100B70BD10B553EC102B51ECBC
:10468000100B04F0CBF941EC100B10BD10B553EC3E
:10469000112B51EC100B04F0C1F941EC100B10BDC3
:1046A0009FED050B10B553EC102B51EC100B04F0E3
:1046B0005DFA41EC100B10BD00000000000000008E
:1046C0009FED050B10B553EC102B51EC100B04F0C3
:1046D000A5FB41EC100B10BD000000000000001015
:1046E00090ED000A094A10EE101ADFED090A914216
:1046F00002DD30EE600A06E010EE101A054A914223
:1047000003D330EE200A80ED000A704700003443E6
:104710000000B443000034C310B504460088DFED48
:10472000270A00EE100A9FED261A2649B8EE400A25
:1047300020EE200A20EE010A84ED150AD4ED140AB9
:1047400030EEC00A10EE100A884202DD30EEC10AD7
:1047500006E010EE100A1C49884203D330EE810AAD
:1047600084ED140A207D012803D11848807E012899
:104770000BD09FED170A84ED140A84ED150A84ED21
:104780000F0A84ED070A84ED080A04F15000FEF7D1
:1047900051FE84ED070AB4F9020000EE100A04F19C
:1047A0001C00B8EEC00A84ED080AFEF743FEBDEE19
:1047B000C00A10EE100A208210BD0000000000396F
:1047C0000000B44300003443000034C380070020DD
:1047D0000000000010B541EC100BFFF76DFC51EC30
:1047E000100B10BD054900B50120487000F08CFA8F
:1047F00002F0A4F85DF804EB00F002B8030000201A
:10480000F0B52748274B0022017A29B9417A19B11E
:104810001979012900D11A7122494FF4FA66103929
:104820000024D1E90257761BBC4103D20024C1E920
:1048300002441A711C791C4B012C93ED040AF1EE11
:10484000400ABDEEC00AFDEEE00A08D0022C10D0EE
:10485000032C18D0042C1CD002804280F0BDD1E97A
:104860000223521C43F10003C1E9022310EE101A87
:1048700011E0D1E90223521C43F10003C1E90223F4
:1048800010EE901A01E010EE101A018010EE101ACE
:1048900004E010EE901A018010EE901A4180F0BDF5
:1048A0008C09002018000020C805002010B50A4C13
:1048B0000A48E16888470948E16850308847074C52
:1048C00054F8A00FFEF716FB216888716068FEF7A8
:1048D00011FB6168887110BDE4070020D001002041
:1048E0002DE9F0470120FCF747FF7548817803293F
:1048F00002D1C178032906D00021CB0071490A7882
:10490000022A02D003E00121F7E74178F1B3002148
:1049100043EA01146C4B8579197841EA45010C434F
:104920006A490C709B786A4C43EA02124A70007A1A
:1049300088700020CA7854F820301B7D83401A43C9
:10494000401CC0B2CA700828F4D3226A0879127DCC
:104950001043626A127D40EA4200A26A127D40EA78
:10496000820008710123594A5A495B48FCF7DAFA78
:104970000028F7D1554F8046083F4FF40070C7F824
:104980000880C7F80C80FCF7F7FE00E007E0DFF8CE
:104990004C91534D99F81A00012802D012E00121E0
:1049A000B6E7002654F82600017E39B9C18AA1F283
:1049B0000121032902D86A6844499047761CB6B29F
:1049C0000B2EEFD30123414A42494348FCF7AAFA90
:1049D0000028F7D1C7F80880C7F80C8099F81A00AA
:1049E000012812D15FF0000654F82600017E01294B
:1049F00007D1C18AA1F20121032902D86A6833498B
:104A00009047761CB6B20B2EEED302232F4A3149C3
:104A10003448FCF787FA0028F7D1C7F80880C24667
:104A2000C7F80C8040F2FF10FCF7A6FE99F81A00B8
:104A3000012811D15FF0000654F82600017E39B933
:104A4000C18AA1F20521032902D86A681F4990474B
:104A5000761CB6B20B2EEFD301231C4A1D491E480B
:104A6000FCF760FA0028F7D13846B846C0F808A02D
:104A7000C0F80CA099F81A005746012811D1002659
:104A800054F82600017E012907D1C18AA1F205212F
:104A9000032902D86A680D499047761CB6B20B2EDE
:104AA000EED30223094A0B490E48FCF73BFA0028D3
:104AB000F7D1C8F80870C8F80C70BDE8F08700009E
:104AC00018000020030000200000002048080020FB
:104AD00094050020280A002094110020800700205F
:104AE000E4070020BC1100202DE9F04F5248544F3C
:104AF000524D90F801C03E7A4FF002094FF0010A82
:104B00004FF4967BA0F11001DFED4E0A4E4A0B6880
:104B1000002492ED010A5B1CBCF10B0F2BD2DFE8E5
:104B20000CF02A0610182C434E666F2A7900527A30
:104B3000002A4A6801D0521C4A60142A1BD94C60D2
:104B400077E00B6082F808A05B4514D90C60032164
:104B500010E0C2ED000A10EE101A3C4A914202DB4E
:104B600030EE600A01E030EEC00A10EE101AA942E1
:104B700001DA04214170BDE8F08F3649DFED340AD7
:104B8000354AC1ED000A91ED010A10EE101A91426A
:104B900002DB30EE600A01E030EEC00A10EE101ABF
:104BA000A942E8DA0521E5E72C4A0B60B3F5487F16
:104BB0001472E0D9002EDED10C600621DAE7C17A4A
:104BC00009B10470D7E7DFED260A10EE101AC2ED26
:104BD000000A244A914202DB30EE600A01E030EE26
:104BE000C00A10EE101AA942C5DA0721C2E71472F2
:104BF0000B6080F804A05B45BDD90C600821B9E7C3
:104C00000470787A18B116B1C2ED000AB3E71648FD
:104C10008470B0E7DFED150AB5EEC00AC2ED000AF8
:104C2000F1EE10FA01DAB1EE400A10EE101AA942C4
:104C3000A1DA80F801909EE7180000200000E6420B
:104C40008C09002000200045680900200020004554
:104C500000EC38467409002000EC3846800900203A
:104C6000002080450020804500000020000000005A
:104C700070B520490125A1F110024E7810681E4B35
:104C8000401C012E08D0022E0FD00024032E27D066
:104C9000052E00D10C7070BD10601D72B0F5FA7F4A
:104CA000F9D9C878401CC87070BDDFED140A1060D7
:104CB000C3ED000A93ED010A114B10EE102A9A423F
:104CC00002DB30EE600A01E030EEC00A0D4B10EE60
:104CD000102A9A42E8DAB0F5487FE5D9032007E0C8
:104CE0001C7210600D71B0F5967FDDD90420146040
:104CF000487070BD18000020680900200020804521
:104D0000002080450000E6420A480178012908D0C9
:104D1000022908D0032908D0042908D000214170B5
:104D20007047FFF7E1BE00F07DB9FFF7A1BF00F0CB
:104D30001FB80000180000200B4810B541690B484F
:104D400088470A4C34F8100F4042A4F88400D4F885
:104D5000F81080348879FEF7C5FBE06FFEF7CAF8DB
:104D6000E16F887110BD0000E40700203C000020C6
:104D70002DE9F04F69486A4E014690F801C0DFF80E
:104D8000A4E1CF794FF0060B4FF0020A1039DFEDA6
:104D9000661A664A0B68012592ED010A0024DFF8C5
:104DA000909130EE611A71EEC00A5B1CBCF1160FD7
:104DB00010D2DFE80CF00B110F1C303948516A7229
:104DC0000F80868B0F0F0F0F0F0F989D8571012F8E
:104DD00000D14570BDE8F08F417A032901D0C27A35
:104DE00012B1491E41722BE080F801A0F2E7DFED1D
:104DF000510A10EE101AC2ED000A4F4A914202DB2E
:104E000030EE600A01E030EEC00A10EE101AB14236
:104E1000E0DA042106E00B601572B3F5FA7FD9D908
:104E20000C6005214170D5E710EE101AC2ED001A92
:104E3000714501DBF0EE410A10EE901AB142C9DA79
:104E400080F801B0C6E70B6089F80850B3F57A7FA7
:104E5000C0D90C600721E5E7DFED380A0B60C2ED31
:104E6000000A10EE102A364DAA4202DB30EE600A2C
:104E700001E030EEC00A10EE102AB242AADAB3F511
:104E8000487FA7D90C600821CCE714720B60B3F5FA
:104E9000FA7F9FD90C600921C4E710EE101AC2ED09
:104EA000001A714501DBF0EE410A10EE901AB14292
:104EB00090DA0A21B6E780F806A0022F8AD10C21E9
:104EC000B0E78571012F85D10D21ABE71D48017A2F
:104ED00019B9407A08B9507A10B11B48847079E743
:104EE0001A48047076E79FED1A0A89ED000A71E707
:104EF000DFED180A184AC9ED000A99ED010A10EE13
:104F0000101A914202DB30EE600A01E030EEC00A76
:104F100010EE101AB142FFF667AF5BE718000020F1
:104F20000000E642002000450020004568090020FE
:104F30008009002000208045002080450000A34318
:104F40000000A3438C090020000000200300002083
:104F50000000000000569546005695460348002183
:104F60009FED030A017280ED000A70476809002076
:104F700000208045214910B5214A0B7D907A012BF4
:104F800037D191F89830012B33D1002831D100234B
:104F90009FED1C0A137281ED1F0A9FED1B0A81ED24
:104FA000120A9FED1A0A81ED140A08890C88A042A2
:104FB00001D3041B00E0241A1548732C1ADA046884
:104FC000641C0460B4F57A7F15D99FED120A81ED57
:104FD0001F0A9FED110A81ED120A9FED100A81ED63
:104FE000030A9FED0F0A81ED140A82ED000A0360A7
:104FF000012010BD0360002010BD00003C00002017
:105000006809002000007A4400409C4500606AC79F
:10501000240000200080BB4400401C46000000002B
:10502000002000452DE9F04F9B489C499C4C90F88E
:1050300001C0DFF870A2DFF870B2DFF870E20F7A1B
:1050400001264FF49679A0F110029FED996A9949D3
:10505000136891ED010A70EE465A36EE403A9FED24
:10506000962A30EE421A72EE400ADFED944A70EE54
:10507000642A34EEC05ADFED923A924D5B1CD5EDB6
:10508000011A0025BCF1130F31EEE34A73EEE13A49
:1050900017D2DFE80CF0160A1328303E5361687609
:1050A000899AA2B0C5D3DAE8FA0013600E724B45B4
:1050B00007D9002F05D10221156012E0C27A12B182
:1050C0000570BDE8F08F81ED006A10EE101A7E4A7F
:1050D000914201DBB0EE653A13EE101AA142F0DA0C
:1050E00003214170EDE70D72136006714B45E8D95D
:1050F00004211560F5E781ED002A10EE101A5145E4
:1051000001DBF0EE410A10EE901AA142D9DA052136
:10511000E7E79FED6E0A6B496D4A81ED000A11EEDB
:10512000901A914202DB31EEC00A01E030EE610AD2
:1051300010EE101AA142C4DA0621D2E7C1ED004AEE
:1051400010EE101A594501DAF0EE452A12EE901AC7
:10515000A142B6DA0721C4E713600E724B45B0D9FD
:1051600008211560BDE781ED002A10EE101A5145A7
:1051700001DBF0EE410A10EE901AA142A1DA0921FA
:10518000AFE79FED4F0A4F4981ED000A11EE901AEB
:10519000714501DBF0EE443A13EE901AA14290DA29
:1051A000002F8ED10A219CE7002F8AD181ED006A61
:1051B00010EE101A444A914201DBB0EE653A13EE4C
:1051C000101AA1428EDA0B218BE70D721360067163
:1051D0004B4587D90C21156083E781ED002A10EE3D
:1051E000101A514501DBF0EE410A10EE901AA1426F
:1051F0008CDA0D2175E733499FED360A364A81ED89
:10520000000A11EE901A914202DB31EEC00A01E071
:1052100030EE610A10EE101AA1428CDA0E2160E71E
:10522000C1ED004A10EE101A594501DAF0EE452A98
:1052300012EE901AA1428CDA0F2152E713600E721F
:105240004B458CD9102115604BE781ED002A10EEFB
:10525000101A514501DBF0EE410A10EE901AA142FE
:105260008CDA11213DE717499FED150A81ED000AFF
:1052700011EE901A714501DBF0EE443A13EE901AEC
:10528000A1428CDA12212CE7FFE703229FED130ADB
:10529000427281ED000A13E7180000208C090020FB
:1052A0000000E642002000450080B74300EC38468D
:1052B0000020804568090020002000450080B74399
:1052C00000EC384674090020002080450000FA44B4
:1052D0000000FA440010A4460010A44600606A458D
:1052E00070B5054602F096F94FEA000402F092F913
:1052F000001BA842FAD370BD10B50068016841F4E4
:10530000002101600148FEF795FC10BDBA0B00209A
:1053100010B50068016821F4002101600148FEF722
:1053200089FC10BDD20B00202DE9F0414A4B2DED38
:10533000028B987801281BD048480027484C87707A
:10534000077061789FED478A474D484E012915D077
:1053500002292ED0032961D10121317296ED010A73
:10536000434C10EE102AA2425CDB30EE480A5BE0B0
:10537000BDEC028BBDE8F041FFF734BA02F03AFE13
:105380003C4886ED008ADFED3C0A0772C0ED000A5A
:105390003A4A7168914241DD90ED010A384910EEB8
:1053A000100A884202DB30EE600A30E030EEC00ABC
:1053B0002DE001F0B5FB02F027FF32483249DFED66
:1053C000330A90ED010A10EE100A884202DB30EE3B
:1053D000600A01E030EEC00A10EE100AA8421DDAA1
:1053E0002B4890ED020AB5EEC00AF1EE10FA01DA90
:1053F000B1EE400A10EE101AA9420FDA90ED030A3E
:10540000B5EEC00AF1EE10FA01DAB1EE400A10EE84
:10541000100AA84202DA6078401C6070BDEC028B72
:10542000BDE8F08138EE400A1A4C10EE102AA24274
:10543000F4DA194A92ED010AB5EEC00AF1EE10FA5B
:1054400001DAB1EE400A10EE102AAA42E6DA9970AB
:1054500001704170E2E70000000000201800002009
:1054600003000020005695460000E6428009002017
:1054700000569546680900200080A24400401C4662
:105480000080A2447409002000EC384600EC384645
:105490009809002000009643AC0900202DE9F05F38
:1054A0006A492DED028B887807281BD068480027B1
:1054B000684C877007706378DFF89CA1674A4FF0EB
:1054C000030BDFED670A6A4E664DDFF89C91DFF84B
:1054D0009C8196ED010A062B33D2DFE803F03209F6
:1054E0001F367E96BDEC028BBDE8F05FFFF77AB900
:1054F00002F080FD377288F8087099ED020AB5EE67
:10550000C00AF1EE10FA01DAB1EE400A10EE100A0C
:10551000A84214DC7068504511DC72E0DFED550ADA
:1055200010EE100AC6ED000A504502DB30EE600AAC
:1055300001E030EEC00A10EE100A904201DA84F861
:1055400001B0BDEC028BBDE8F09F9FED4B8A4E464B
:1055500089ED008AC9ED010A98ED010AB5EEC00A8D
:10556000F1EE10FA01DAB1EE400A10EE101AA9427B
:1055700004DA9FED420A88ED000A01E002F044FEE1
:105580003F48404990ED010A10EE100ADFED3E0A57
:10559000884202DB30EE600A01E030EEC00A10EE15
:1055A000100AA842CDDA96ED020A384910EE100A28
:1055B000884202DB30EE480A01E038EE400A10EE85
:1055C000100AA842BDDA96ED030AB5EEC00AF1EE64
:1055D00010FA12DAB1EE400A0FE0FFF7BFFC98EDC7
:1055E000010A2B4910EE100ADFED2A0A884202DB7D
:1055F00030EE600A01E030EEC00A10EE100AA84258
:105600009FDA6078401C60709BE7B5EEC00AC6ED7B
:10561000000AF1EE10FA01DAB1EE400A10EE103A8B
:1056200093428EDA1C4A92ED010AB5EEC00AF1EE01
:1056300010FA01DAB1EE400A10EE102AAA4280DA1E
:1056400007228A7002218170C7707AE7000000206B
:10565000180000200300002000401C460000964374
:10566000000000000000E6429809002068090020C0
:105670008009002000401C4600C02845002000454D
:105680007409002000EC384600EC384600C028457C
:105690000020804500208045AC0900202DE9F05F06
:1056A0006C49887808281CD06B4A4FF000096B4C75
:1056B00082F802906F4D82F800906278DFF8A08146
:1056C0006848694EDFF8A4A1694F95ED010A4FF0D3
:1056D000030B072A33D2DFE802F032081F34748448
:1056E0009900BDE8F05FFFF77DB802F083FC85F814
:1056F00008909AED020AB5EEC00AF1EE10FA01DA4E
:10570000B1EE400A10EE100AB04216DB6868404560
:1057100013DC6078401C62E0DFED570A10EE101ACF
:10572000C5ED000A414502DB30EE600A01E030EED3
:10573000C00A10EE101A814201DA84F801B0BDE807
:10574000F09F01F0EDF997ED010AB5EEC00AF1EE18
:1057500010FA01DAB1EE400A10EE100AB04204DA93
:105760009FED460A87ED000A01E002F04DFD444836
:10577000444990ED010A10EE100ADFED430A884219
:1057800002DB30EE600A01E030EEC00A10EE100AD3
:10579000B042D4DA9AED020AB5EEC00AF1EE10FA80
:1057A00001DAB1EE400A10EE101AB142C7DA9AEDF2
:1057B000030AB5EEC00AF1EE10FA22DAB1EE400AA1
:1057C0001FE0787A50B13148417A39B1007A28B176
:1057D00010EE100A404501DD062000E00520607053
:1057E000ADE7FFF7BBFB97ED010A294910EE100A60
:1057F000DFED280A884202DB30EE600A01E030EE7D
:10580000C00A10EE100AB04283DB98E710EE102AAF
:10581000DFED210A214BC5ED000A9A4202DB30EE92
:10582000600A01E030EEC00A10EE102A824286DAE9
:105830001B4890ED010AB5EEC00AF1EE10FA01DA4C
:10584000B1EE400A10EE100AB042C9DA08208870A2
:1058500075E7000000000020180000200300002071
:1058600000401C46000096430000E64298090020D4
:10587000680900208009002000401C4600200045E7
:105880007409002000EC384600EC38468C090020F2
:1058900000208045002080450056954600569546DC
:1058A000AC0900202DE9F041544A2DED028B90788F
:1058B000052828D052480027524C8770077063781B
:1058C000012B26D0504E514D9FED518A022B3AD0DC
:1058D0000421032B7ED0042B11D14E4B93ED010AF2
:1058E000B5EEC00AF1EE10FA01DAB1EE400A10EEA0
:1058F000103AB34203DA0523937001704770BDEC90
:10590000028BBDE8F081BDEC028BBDE8F041FEF7F3
:1059100069BF02F06FFB40480772DFED400A404963
:10592000C0ED000A90ED010A10EE100A884202DB79
:1059300030EE600A01E030EEC00A3A4910EE100A7B
:10594000884242DBDBE701F0EBF895ED010AB5EEAA
:10595000C00AF1EE10FA01DAB1EE400A10EE100AB8
:10596000B04202DA85ED008A01E002F04DFC2E48DB
:105970002E49DFED2F0A90ED010A10EE100A884241
:1059800002DB30EE600A01E030EEC00A10EE100AD1
:10599000B042B4DA274890ED020AB5EEC00AF1EE43
:1059A00010FA01DAB1EE400A10EE101AB142A6DA8E
:1059B00090ED030AB5EEC00AF1EE10FA01DAB1EE8D
:1059C000400A10EE100AB04299DA6078401C60700C
:1059D00095E7FFE785ED008A95ED010A164A10EE7E
:1059E000100A904202DB30EE480A01E038EE400A2D
:1059F00010EE100AB04282DA617080E700000020E9
:105A000018000020030000200000E6426809002082
:105A100000200045AC090020800900200056954672
:105A200000569546000096437409002000EC384665
:105A300000EC384698090020002000452DE9F05F71
:105A40005E4A907803281BD05D4800215D4C817030
:105A5000624D017094F801C00327DFF86CB15B4B15
:105A6000DFF86C915B4EDFF870A195ED010ABCF197
:105A7000070F46D2DFE80CF04508334760768B000D
:105A8000BDE8F05FFEF7AEBE02F0B4FADFED540AF7
:105A90005449C9ED000A99ED010A10EE100A884236
:105AA00002DB30EE600A01E030EEC00A10EE100AB0
:105AB000B04226DA9AED020AB5EEC00AF1EE10FA0B
:105AC00001DAB1EE400A10EE100AB04201DA042009
:105AD0005BE06868584513DC6078401C55E0DFEDFA
